{
	"contracts/led_contract.sol": {
		"led_contract": {
			"abi": [
				{
					"inputs": [],
					"stateMutability": "nonpayable",
					"type": "constructor"
				},
				{
					"inputs": [],
					"name": "SendPaymentToContract",
					"outputs": [
						{
							"internalType": "bool",
							"name": "sufficient",
							"type": "bool"
						}
					],
					"stateMutability": "payable",
					"type": "function"
				},
				{
					"inputs": [],
					"name": "contractBalance",
					"outputs": [
						{
							"internalType": "address payable",
							"name": "",
							"type": "address"
						}
					],
					"stateMutability": "view",
					"type": "function"
				},
				{
					"inputs": [],
					"name": "getBalance",
					"outputs": [
						{
							"internalType": "uint256",
							"name": "",
							"type": "uint256"
						}
					],
					"stateMutability": "view",
					"type": "function"
				},
				{
					"inputs": [],
					"name": "getBalanceOwner",
					"outputs": [
						{
							"internalType": "uint256",
							"name": "",
							"type": "uint256"
						}
					],
					"stateMutability": "view",
					"type": "function"
				},
				{
					"inputs": [],
					"name": "getCurrentAddress",
					"outputs": [
						{
							"internalType": "address payable",
							"name": "",
							"type": "address"
						}
					],
					"stateMutability": "view",
					"type": "function"
				},
				{
					"inputs": [],
					"name": "getOwner",
					"outputs": [
						{
							"internalType": "address",
							"name": "",
							"type": "address"
						}
					],
					"stateMutability": "view",
					"type": "function"
				},
				{
					"inputs": [],
					"name": "kill",
					"outputs": [],
					"stateMutability": "nonpayable",
					"type": "function"
				},
				{
					"inputs": [],
					"name": "ledStatus",
					"outputs": [
						{
							"internalType": "int8",
							"name": "",
							"type": "int8"
						}
					],
					"stateMutability": "view",
					"type": "function"
				},
				{
					"inputs": [],
					"name": "readLed",
					"outputs": [
						{
							"internalType": "int8",
							"name": "",
							"type": "int8"
						}
					],
					"stateMutability": "view",
					"type": "function"
				},
				{
					"inputs": [],
					"name": "retrieveEther",
					"outputs": [],
					"stateMutability": "nonpayable",
					"type": "function"
				},
				{
					"inputs": [
						{
							"internalType": "int8",
							"name": "newOn",
							"type": "int8"
						}
					],
					"name": "setLed",
					"outputs": [],
					"stateMutability": "payable",
					"type": "function"
				},
				{
					"inputs": [
						{
							"internalType": "address payable",
							"name": "_newOwner",
							"type": "address"
						}
					],
					"name": "transferOwnerShip",
					"outputs": [],
					"stateMutability": "nonpayable",
					"type": "function"
				}
			],
			"devdoc": {
				"custom:dev-run-script": "./scripts/deploy_with_ethers.ts",
				"details": "Interact with Smart Contract",
				"kind": "dev",
				"methods": {
					"kill()": {
						"details": "to kill the contract from the blockchain"
					},
					"readLed()": {
						"details": "Return value ",
						"returns": {
							"_0": "'ledStatus' status of the led 1 is on 0 is off"
						}
					},
					"retrieveEther()": {
						"details": "Returns the ether value "
					},
					"setLed(int8)": {
						"details": "Store value in Blockchain",
						"params": {
							"newOn": "1 - toturn led on  0 - turn led off  "
						}
					},
					"transferOwnerShip(address)": {
						"details": "transfers the ownership of the contract "
					}
				},
				"title": "IoT-Smart Contract",
				"version": 1
			},
			"evm": {
				"assembly": "    /* \"contracts/led_contract.sol\":232:2647  contract led_contract is led_interface {... */\n  mstore(0x40, 0x80)\n    /* \"contracts/led_contract.sol\":385:443  constructor(){... */\n  callvalue\n  dup1\n  iszero\n  tag_1\n  jumpi\n  0x00\n  dup1\n  revert\ntag_1:\n  pop\n    /* \"contracts/led_contract.sol\":424:434  msg.sender */\n  caller\n    /* \"contracts/led_contract.sol\":408:413  owner */\n  0x00\n  dup1\n    /* \"contracts/led_contract.sol\":408:435  owner = payable(msg.sender) */\n  0x0100\n  exp\n  dup2\n  sload\n  dup2\n  0xffffffffffffffffffffffffffffffffffffffff\n  mul\n  not\n  and\n  swap1\n  dup4\n  0xffffffffffffffffffffffffffffffffffffffff\n  and\n  mul\n  or\n  swap1\n  sstore\n  pop\n    /* \"contracts/led_contract.sol\":232:2647  contract led_contract is led_interface {... */\n  dataSize(sub_0)\n  dup1\n  dataOffset(sub_0)\n  0x00\n  codecopy\n  0x00\n  return\nstop\n\nsub_0: assembly {\n        /* \"contracts/led_contract.sol\":232:2647  contract led_contract is led_interface {... */\n      mstore(0x40, 0x80)\n      jumpi(tag_1, lt(calldatasize, 0x04))\n      shr(0xe0, calldataload(0x00))\n      dup1\n      0x7291d59b\n      gt\n      tag_14\n      jumpi\n      dup1\n      0x7291d59b\n      eq\n      tag_8\n      jumpi\n      dup1\n      0x8863dd1a\n      eq\n      tag_9\n      jumpi\n      dup1\n      0x893d20e8\n      eq\n      tag_10\n      jumpi\n      dup1\n      0x8b7afe2e\n      eq\n      tag_11\n      jumpi\n      dup1\n      0xa5480959\n      eq\n      tag_12\n      jumpi\n      dup1\n      0xe717ea61\n      eq\n      tag_13\n      jumpi\n      jump(tag_1)\n    tag_14:\n      dup1\n      0x08b6ff56\n      eq\n      tag_2\n      jumpi\n      dup1\n      0x12065fe0\n      eq\n      tag_3\n      jumpi\n      dup1\n      0x224ee04f\n      eq\n      tag_4\n      jumpi\n      dup1\n      0x41c0e1b5\n      eq\n      tag_5\n      jumpi\n      dup1\n      0x5ca26ee1\n      eq\n      tag_6\n      jumpi\n      dup1\n      0x61df9af9\n      eq\n      tag_7\n      jumpi\n    tag_1:\n      0x00\n      dup1\n      revert\n        /* \"contracts/led_contract.sol\":2196:2285  function getBalanceOwner() public view returns(uint){... */\n    tag_2:\n      callvalue\n      dup1\n      iszero\n      tag_15\n      jumpi\n      0x00\n      dup1\n      revert\n    tag_15:\n      pop\n      tag_16\n      tag_17\n      jump\t// in\n    tag_16:\n      mload(0x40)\n      tag_18\n      swap2\n      swap1\n      tag_19\n      jump\t// in\n    tag_18:\n      mload(0x40)\n      dup1\n      swap2\n      sub\n      swap1\n      return\n        /* \"contracts/led_contract.sol\":2096:2190  function getBalance() public view returns(uint){... */\n    tag_3:\n      callvalue\n      dup1\n      iszero\n      tag_20\n      jumpi\n      0x00\n      dup1\n      revert\n    tag_20:\n      pop\n      tag_21\n      tag_22\n      jump\t// in\n    tag_21:\n      mload(0x40)\n      tag_23\n      swap2\n      swap1\n      tag_19\n      jump\t// in\n    tag_23:\n      mload(0x40)\n      dup1\n      swap2\n      sub\n      swap1\n      return\n        /* \"contracts/led_contract.sol\":1564:1814  function retrieveEther() public override onlyOwner{... */\n    tag_4:\n      callvalue\n      dup1\n      iszero\n      tag_24\n      jumpi\n      0x00\n      dup1\n      revert\n    tag_24:\n      pop\n      tag_25\n      tag_26\n      jump\t// in\n    tag_25:\n      stop\n        /* \"contracts/led_contract.sol\":1889:2005  function kill() public override onlyOwner{... */\n    tag_5:\n      callvalue\n      dup1\n      iszero\n      tag_27\n      jumpi\n      0x00\n      dup1\n      revert\n    tag_27:\n      pop\n      tag_28\n      tag_29\n      jump\t// in\n    tag_28:\n      stop\n        /* \"contracts/led_contract.sol\":1026:1184  function SendPaymentToContract() public payable returns(bool sufficient) {... */\n    tag_6:\n      tag_30\n      tag_31\n      jump\t// in\n    tag_30:\n      mload(0x40)\n      tag_32\n      swap2\n      swap1\n      tag_33\n      jump\t// in\n    tag_32:\n      mload(0x40)\n      dup1\n      swap2\n      sub\n      swap1\n      return\n        /* \"contracts/led_contract.sol\":561:828  function setLed(int8 newOn) public override payable {... */\n    tag_7:\n      tag_34\n      0x04\n      dup1\n      calldatasize\n      sub\n      dup2\n      add\n      swap1\n      tag_35\n      swap2\n      swap1\n      tag_36\n      jump\t// in\n    tag_35:\n      tag_37\n      jump\t// in\n    tag_34:\n      stop\n        /* \"contracts/led_contract.sol\":313:334  int8 public ledStatus */\n    tag_8:\n      callvalue\n      dup1\n      iszero\n      tag_38\n      jumpi\n      0x00\n      dup1\n      revert\n    tag_38:\n      pop\n      tag_39\n      tag_40\n      jump\t// in\n    tag_39:\n      mload(0x40)\n      tag_41\n      swap2\n      swap1\n      tag_42\n      jump\t// in\n    tag_41:\n      mload(0x40)\n      dup1\n      swap2\n      sub\n      swap1\n      return\n        /* \"contracts/led_contract.sol\":2541:2645  function transferOwnerShip(address payable _newOwner) public onlyOwner{... */\n    tag_9:\n      callvalue\n      dup1\n      iszero\n      tag_43\n      jumpi\n      0x00\n      dup1\n      revert\n    tag_43:\n      pop\n      tag_44\n      0x04\n      dup1\n      calldatasize\n      sub\n      dup2\n      add\n      swap1\n      tag_45\n      swap2\n      swap1\n      tag_46\n      jump\t// in\n    tag_45:\n      tag_47\n      jump\t// in\n    tag_44:\n      stop\n        /* \"contracts/led_contract.sol\":2011:2090  function getOwner() public view returns (address) {... */\n    tag_10:\n      callvalue\n      dup1\n      iszero\n      tag_48\n      jumpi\n      0x00\n      dup1\n      revert\n    tag_48:\n      pop\n      tag_49\n      tag_50\n      jump\t// in\n    tag_49:\n      mload(0x40)\n      tag_51\n      swap2\n      swap1\n      tag_52\n      jump\t// in\n    tag_51:\n      mload(0x40)\n      dup1\n      swap2\n      sub\n      swap1\n      return\n        /* \"contracts/led_contract.sol\":340:378  address payable public contractBalance */\n    tag_11:\n      callvalue\n      dup1\n      iszero\n      tag_53\n      jumpi\n      0x00\n      dup1\n      revert\n    tag_53:\n      pop\n      tag_54\n      tag_55\n      jump\t// in\n    tag_54:\n      mload(0x40)\n      tag_56\n      swap2\n      swap1\n      tag_57\n      jump\t// in\n    tag_56:\n      mload(0x40)\n      dup1\n      swap2\n      sub\n      swap1\n      return\n        /* \"contracts/led_contract.sol\":1418:1505  function readLed() public view override returns (int8){... */\n    tag_12:\n      callvalue\n      dup1\n      iszero\n      tag_58\n      jumpi\n      0x00\n      dup1\n      revert\n    tag_58:\n      pop\n      tag_59\n      tag_60\n      jump\t// in\n    tag_59:\n      mload(0x40)\n      tag_61\n      swap2\n      swap1\n      tag_42\n      jump\t// in\n    tag_61:\n      mload(0x40)\n      dup1\n      swap2\n      sub\n      swap1\n      return\n        /* \"contracts/led_contract.sol\":1190:1308  function getCurrentAddress() public view returns (address payable){... */\n    tag_13:\n      callvalue\n      dup1\n      iszero\n      tag_62\n      jumpi\n      0x00\n      dup1\n      revert\n    tag_62:\n      pop\n      tag_63\n      tag_64\n      jump\t// in\n    tag_63:\n      mload(0x40)\n      tag_65\n      swap2\n      swap1\n      tag_57\n      jump\t// in\n    tag_65:\n      mload(0x40)\n      dup1\n      swap2\n      sub\n      swap1\n      return\n        /* \"contracts/led_contract.sol\":2196:2285  function getBalanceOwner() public view returns(uint){... */\n    tag_17:\n        /* \"contracts/led_contract.sol\":2243:2247  uint */\n      0x00\n        /* \"contracts/led_contract.sol\":2265:2270  owner */\n      dup1\n      0x00\n      swap1\n      sload\n      swap1\n      0x0100\n      exp\n      swap1\n      div\n      0xffffffffffffffffffffffffffffffffffffffff\n      and\n        /* \"contracts/led_contract.sol\":2265:2278  owner.balance */\n      0xffffffffffffffffffffffffffffffffffffffff\n      and\n      balance\n        /* \"contracts/led_contract.sol\":2258:2278  return owner.balance */\n      swap1\n      pop\n        /* \"contracts/led_contract.sol\":2196:2285  function getBalanceOwner() public view returns(uint){... */\n      swap1\n      jump\t// out\n        /* \"contracts/led_contract.sol\":2096:2190  function getBalance() public view returns(uint){... */\n    tag_22:\n        /* \"contracts/led_contract.sol\":2138:2142  uint */\n      0x00\n        /* \"contracts/led_contract.sol\":2160:2175  contractBalance */\n      0x01\n      0x00\n      swap1\n      sload\n      swap1\n      0x0100\n      exp\n      swap1\n      div\n      0xffffffffffffffffffffffffffffffffffffffff\n      and\n        /* \"contracts/led_contract.sol\":2160:2183  contractBalance.balance */\n      0xffffffffffffffffffffffffffffffffffffffff\n      and\n      balance\n        /* \"contracts/led_contract.sol\":2153:2183  return contractBalance.balance */\n      swap1\n      pop\n        /* \"contracts/led_contract.sol\":2096:2190  function getBalance() public view returns(uint){... */\n      swap1\n      jump\t// out\n        /* \"contracts/led_contract.sol\":1564:1814  function retrieveEther() public override onlyOwner{... */\n    tag_26:\n        /* \"contracts/led_contract.sol\":2410:2415  owner */\n      0x00\n      dup1\n      sload\n      swap1\n      0x0100\n      exp\n      swap1\n      div\n      0xffffffffffffffffffffffffffffffffffffffff\n      and\n        /* \"contracts/led_contract.sol\":2396:2415  msg.sender == owner */\n      0xffffffffffffffffffffffffffffffffffffffff\n      and\n        /* \"contracts/led_contract.sol\":2396:2406  msg.sender */\n      caller\n        /* \"contracts/led_contract.sol\":2396:2415  msg.sender == owner */\n      0xffffffffffffffffffffffffffffffffffffffff\n      and\n      eq\n        /* \"contracts/led_contract.sol\":2388:2448  require(msg.sender == owner, \"checks for owner of contract\") */\n      tag_69\n      jumpi\n      mload(0x40)\n      0x08c379a000000000000000000000000000000000000000000000000000000000\n      dup2\n      mstore\n      0x04\n      add\n      tag_70\n      swap1\n      tag_71\n      jump\t// in\n    tag_70:\n      mload(0x40)\n      dup1\n      swap2\n      sub\n      swap1\n      revert\n    tag_69:\n        /* \"contracts/led_contract.sol\":1657:1658  0 */\n      0x00\n        /* \"contracts/led_contract.sol\":1633:1654  address(this).balance */\n      selfbalance\n        /* \"contracts/led_contract.sol\":1633:1658  address(this).balance > 0 */\n      gt\n        /* \"contracts/led_contract.sol\":1624:1683  require (address(this).balance > 0, \"no ehter in contract\") */\n      tag_73\n      jumpi\n      mload(0x40)\n      0x08c379a000000000000000000000000000000000000000000000000000000000\n      dup2\n      mstore\n      0x04\n      add\n      tag_74\n      swap1\n      tag_75\n      jump\t// in\n    tag_74:\n      mload(0x40)\n      dup1\n      swap2\n      sub\n      swap1\n      revert\n    tag_73:\n        /* \"contracts/led_contract.sol\":1764:1774  msg.sender */\n      caller\n        /* \"contracts/led_contract.sol\":1756:1784  payable(msg.sender).transfer */\n      0xffffffffffffffffffffffffffffffffffffffff\n      and\n        /* \"contracts/led_contract.sol\":1756:1807  payable(msg.sender).transfer(address(this).balance) */\n      0x08fc\n        /* \"contracts/led_contract.sol\":1785:1806  address(this).balance */\n      selfbalance\n        /* \"contracts/led_contract.sol\":1756:1807  payable(msg.sender).transfer(address(this).balance) */\n      swap1\n      dup2\n      iszero\n      mul\n      swap1\n      mload(0x40)\n      0x00\n      mload(0x40)\n      dup1\n      dup4\n      sub\n      dup2\n      dup6\n      dup9\n      dup9\n      call\n      swap4\n      pop\n      pop\n      pop\n      pop\n      iszero\n      dup1\n      iszero\n      tag_77\n      jumpi\n      returndatasize\n      0x00\n      dup1\n      returndatacopy\n      revert(0x00, returndatasize)\n    tag_77:\n      pop\n        /* \"contracts/led_contract.sol\":1564:1814  function retrieveEther() public override onlyOwner{... */\n      jump\t// out\n        /* \"contracts/led_contract.sol\":1889:2005  function kill() public override onlyOwner{... */\n    tag_29:\n        /* \"contracts/led_contract.sol\":2410:2415  owner */\n      0x00\n      dup1\n      sload\n      swap1\n      0x0100\n      exp\n      swap1\n      div\n      0xffffffffffffffffffffffffffffffffffffffff\n      and\n        /* \"contracts/led_contract.sol\":2396:2415  msg.sender == owner */\n      0xffffffffffffffffffffffffffffffffffffffff\n      and\n        /* \"contracts/led_contract.sol\":2396:2406  msg.sender */\n      caller\n        /* \"contracts/led_contract.sol\":2396:2415  msg.sender == owner */\n      0xffffffffffffffffffffffffffffffffffffffff\n      and\n      eq\n        /* \"contracts/led_contract.sol\":2388:2448  require(msg.sender == owner, \"checks for owner of contract\") */\n      tag_79\n      jumpi\n      mload(0x40)\n      0x08c379a000000000000000000000000000000000000000000000000000000000\n      dup2\n      mstore\n      0x04\n      add\n      tag_80\n      swap1\n      tag_71\n      jump\t// in\n    tag_80:\n      mload(0x40)\n      dup1\n      swap2\n      sub\n      swap1\n      revert\n    tag_79:\n        /* \"contracts/led_contract.sol\":1953:1968  contractBalance */\n      0x01\n      0x00\n      swap1\n      sload\n      swap1\n      0x0100\n      exp\n      swap1\n      div\n      0xffffffffffffffffffffffffffffffffffffffff\n      and\n        /* \"contracts/led_contract.sol\":1940:1969  selfdestruct(contractBalance) */\n      0xffffffffffffffffffffffffffffffffffffffff\n      and\n      selfdestruct\n        /* \"contracts/led_contract.sol\":1026:1184  function SendPaymentToContract() public payable returns(bool sufficient) {... */\n    tag_31:\n        /* \"contracts/led_contract.sol\":1082:1097  bool sufficient */\n      0x00\n        /* \"contracts/led_contract.sol\":1113:1132  getCurrentAddress() */\n      tag_83\n        /* \"contracts/led_contract.sol\":1113:1130  getCurrentAddress */\n      tag_64\n        /* \"contracts/led_contract.sol\":1113:1132  getCurrentAddress() */\n      jump\t// in\n    tag_83:\n        /* \"contracts/led_contract.sol\":1113:1141  getCurrentAddress().transfer */\n      0xffffffffffffffffffffffffffffffffffffffff\n      and\n        /* \"contracts/led_contract.sol\":1113:1152  getCurrentAddress().transfer(msg.value) */\n      0x08fc\n        /* \"contracts/led_contract.sol\":1142:1151  msg.value */\n      callvalue\n        /* \"contracts/led_contract.sol\":1113:1152  getCurrentAddress().transfer(msg.value) */\n      swap1\n      dup2\n      iszero\n      mul\n      swap1\n      mload(0x40)\n      0x00\n      mload(0x40)\n      dup1\n      dup4\n      sub\n      dup2\n      dup6\n      dup9\n      dup9\n      call\n      swap4\n      pop\n      pop\n      pop\n      pop\n      iszero\n      dup1\n      iszero\n      tag_85\n      jumpi\n      returndatasize\n      0x00\n      dup1\n      returndatacopy\n      revert(0x00, returndatasize)\n    tag_85:\n      pop\n        /* \"contracts/led_contract.sol\":1173:1177  true */\n      0x01\n        /* \"contracts/led_contract.sol\":1166:1177  return true */\n      swap1\n      pop\n        /* \"contracts/led_contract.sol\":1026:1184  function SendPaymentToContract() public payable returns(bool sufficient) {... */\n      swap1\n      jump\t// out\n        /* \"contracts/led_contract.sol\":561:828  function setLed(int8 newOn) public override payable {... */\n    tag_37:\n        /* \"contracts/led_contract.sol\":641:642  1 */\n      0x01\n        /* \"contracts/led_contract.sol\":632:637  newOn */\n      dup2\n        /* \"contracts/led_contract.sol\":632:642  newOn == 1 */\n      0x00\n      signextend\n      eq\n        /* \"contracts/led_contract.sol\":632:655  newOn == 1 || newOn ==0 */\n      dup1\n      tag_87\n      jumpi\n      pop\n        /* \"contracts/led_contract.sol\":654:655  0 */\n      0x00\n        /* \"contracts/led_contract.sol\":646:651  newOn */\n      dup2\n        /* \"contracts/led_contract.sol\":646:655  newOn ==0 */\n      0x00\n      signextend\n      eq\n        /* \"contracts/led_contract.sol\":632:655  newOn == 1 || newOn ==0 */\n    tag_87:\n        /* \"contracts/led_contract.sol\":623:708  require( newOn == 1 || newOn ==0, \"only 0 or 1 as parameter for the setLed function\") */\n      tag_88\n      jumpi\n      mload(0x40)\n      0x08c379a000000000000000000000000000000000000000000000000000000000\n      dup2\n      mstore\n      0x04\n      add\n      tag_89\n      swap1\n      tag_90\n      jump\t// in\n    tag_89:\n      mload(0x40)\n      dup1\n      swap2\n      sub\n      swap1\n      revert\n    tag_88:\n        /* \"contracts/led_contract.sol\":730:735  newOn */\n      dup1\n        /* \"contracts/led_contract.sol\":718:727  ledStatus */\n      0x00\n      0x14\n        /* \"contracts/led_contract.sol\":718:735  ledStatus = newOn */\n      0x0100\n      exp\n      dup2\n      sload\n      dup2\n      0xff\n      mul\n      not\n      and\n      swap1\n      dup4\n      0x00\n      signextend\n      0xff\n      and\n      mul\n      or\n      swap1\n      sstore\n      pop\n        /* \"contracts/led_contract.sol\":782:801  getCurrentAddress() */\n      tag_91\n        /* \"contracts/led_contract.sol\":782:799  getCurrentAddress */\n      tag_64\n        /* \"contracts/led_contract.sol\":782:801  getCurrentAddress() */\n      jump\t// in\n    tag_91:\n        /* \"contracts/led_contract.sol\":782:810  getCurrentAddress().transfer */\n      0xffffffffffffffffffffffffffffffffffffffff\n      and\n        /* \"contracts/led_contract.sol\":782:821  getCurrentAddress().transfer(msg.value) */\n      0x08fc\n        /* \"contracts/led_contract.sol\":811:820  msg.value */\n      callvalue\n        /* \"contracts/led_contract.sol\":782:821  getCurrentAddress().transfer(msg.value) */\n      swap1\n      dup2\n      iszero\n      mul\n      swap1\n      mload(0x40)\n      0x00\n      mload(0x40)\n      dup1\n      dup4\n      sub\n      dup2\n      dup6\n      dup9\n      dup9\n      call\n      swap4\n      pop\n      pop\n      pop\n      pop\n      iszero\n      dup1\n      iszero\n      tag_93\n      jumpi\n      returndatasize\n      0x00\n      dup1\n      returndatacopy\n      revert(0x00, returndatasize)\n    tag_93:\n      pop\n        /* \"contracts/led_contract.sol\":561:828  function setLed(int8 newOn) public override payable {... */\n      pop\n      jump\t// out\n        /* \"contracts/led_contract.sol\":313:334  int8 public ledStatus */\n    tag_40:\n      0x00\n      0x14\n      swap1\n      sload\n      swap1\n      0x0100\n      exp\n      swap1\n      div\n      0x00\n      signextend\n      dup2\n      jump\t// out\n        /* \"contracts/led_contract.sol\":2541:2645  function transferOwnerShip(address payable _newOwner) public onlyOwner{... */\n    tag_47:\n        /* \"contracts/led_contract.sol\":2410:2415  owner */\n      0x00\n      dup1\n      sload\n      swap1\n      0x0100\n      exp\n      swap1\n      div\n      0xffffffffffffffffffffffffffffffffffffffff\n      and\n        /* \"contracts/led_contract.sol\":2396:2415  msg.sender == owner */\n      0xffffffffffffffffffffffffffffffffffffffff\n      and\n        /* \"contracts/led_contract.sol\":2396:2406  msg.sender */\n      caller\n        /* \"contracts/led_contract.sol\":2396:2415  msg.sender == owner */\n      0xffffffffffffffffffffffffffffffffffffffff\n      and\n      eq\n        /* \"contracts/led_contract.sol\":2388:2448  require(msg.sender == owner, \"checks for owner of contract\") */\n      tag_95\n      jumpi\n      mload(0x40)\n      0x08c379a000000000000000000000000000000000000000000000000000000000\n      dup2\n      mstore\n      0x04\n      add\n      tag_96\n      swap1\n      tag_71\n      jump\t// in\n    tag_96:\n      mload(0x40)\n      dup1\n      swap2\n      sub\n      swap1\n      revert\n    tag_95:\n        /* \"contracts/led_contract.sol\":2629:2638  _newOwner */\n      dup1\n        /* \"contracts/led_contract.sol\":2621:2626  owner */\n      0x00\n      dup1\n        /* \"contracts/led_contract.sol\":2621:2638  owner = _newOwner */\n      0x0100\n      exp\n      dup2\n      sload\n      dup2\n      0xffffffffffffffffffffffffffffffffffffffff\n      mul\n      not\n      and\n      swap1\n      dup4\n      0xffffffffffffffffffffffffffffffffffffffff\n      and\n      mul\n      or\n      swap1\n      sstore\n      pop\n        /* \"contracts/led_contract.sol\":2541:2645  function transferOwnerShip(address payable _newOwner) public onlyOwner{... */\n      pop\n      jump\t// out\n        /* \"contracts/led_contract.sol\":2011:2090  function getOwner() public view returns (address) {... */\n    tag_50:\n        /* \"contracts/led_contract.sol\":2052:2059  address */\n      0x00\n        /* \"contracts/led_contract.sol\":2078:2083  owner */\n      dup1\n      0x00\n      swap1\n      sload\n      swap1\n      0x0100\n      exp\n      swap1\n      div\n      0xffffffffffffffffffffffffffffffffffffffff\n      and\n        /* \"contracts/led_contract.sol\":2071:2083  return owner */\n      swap1\n      pop\n        /* \"contracts/led_contract.sol\":2011:2090  function getOwner() public view returns (address) {... */\n      swap1\n      jump\t// out\n        /* \"contracts/led_contract.sol\":340:378  address payable public contractBalance */\n    tag_55:\n      0x01\n      0x00\n      swap1\n      sload\n      swap1\n      0x0100\n      exp\n      swap1\n      div\n      0xffffffffffffffffffffffffffffffffffffffff\n      and\n      dup2\n      jump\t// out\n        /* \"contracts/led_contract.sol\":1418:1505  function readLed() public view override returns (int8){... */\n    tag_60:\n        /* \"contracts/led_contract.sol\":1467:1471  int8 */\n      0x00\n        /* \"contracts/led_contract.sol\":1489:1498  ledStatus */\n      dup1\n      0x14\n      swap1\n      sload\n      swap1\n      0x0100\n      exp\n      swap1\n      div\n      0x00\n      signextend\n        /* \"contracts/led_contract.sol\":1482:1498  return ledStatus */\n      swap1\n      pop\n        /* \"contracts/led_contract.sol\":1418:1505  function readLed() public view override returns (int8){... */\n      swap1\n      jump\t// out\n        /* \"contracts/led_contract.sol\":1190:1308  function getCurrentAddress() public view returns (address payable){... */\n    tag_64:\n        /* \"contracts/led_contract.sol\":1240:1255  address payable */\n      0x00\n        /* \"contracts/led_contract.sol\":1291:1295  this */\n      address\n        /* \"contracts/led_contract.sol\":1268:1297  return payable(address(this)) */\n      swap1\n      pop\n        /* \"contracts/led_contract.sol\":1190:1308  function getCurrentAddress() public view returns (address payable){... */\n      swap1\n      jump\t// out\n        /* \"#utility.yul\":7:162   */\n    tag_102:\n        /* \"#utility.yul\":61:66   */\n      0x00\n        /* \"#utility.yul\":99:105   */\n      dup2\n        /* \"#utility.yul\":86:106   */\n      calldataload\n        /* \"#utility.yul\":77:106   */\n      swap1\n      pop\n        /* \"#utility.yul\":115:156   */\n      tag_104\n        /* \"#utility.yul\":150:155   */\n      dup2\n        /* \"#utility.yul\":115:156   */\n      tag_105\n      jump\t// in\n    tag_104:\n        /* \"#utility.yul\":7:162   */\n      swap3\n      swap2\n      pop\n      pop\n      jump\t// out\n        /* \"#utility.yul\":168:301   */\n    tag_106:\n        /* \"#utility.yul\":211:216   */\n      0x00\n        /* \"#utility.yul\":249:255   */\n      dup2\n        /* \"#utility.yul\":236:256   */\n      calldataload\n        /* \"#utility.yul\":227:256   */\n      swap1\n      pop\n        /* \"#utility.yul\":265:295   */\n      tag_108\n        /* \"#utility.yul\":289:294   */\n      dup2\n        /* \"#utility.yul\":265:295   */\n      tag_109\n      jump\t// in\n    tag_108:\n        /* \"#utility.yul\":168:301   */\n      swap3\n      swap2\n      pop\n      pop\n      jump\t// out\n        /* \"#utility.yul\":307:652   */\n    tag_46:\n        /* \"#utility.yul\":374:380   */\n      0x00\n        /* \"#utility.yul\":423:425   */\n      0x20\n        /* \"#utility.yul\":411:420   */\n      dup3\n        /* \"#utility.yul\":402:409   */\n      dup5\n        /* \"#utility.yul\":398:421   */\n      sub\n        /* \"#utility.yul\":394:426   */\n      slt\n        /* \"#utility.yul\":391:510   */\n      iszero\n      tag_111\n      jumpi\n        /* \"#utility.yul\":429:508   */\n      tag_112\n      tag_113\n      jump\t// in\n    tag_112:\n        /* \"#utility.yul\":391:510   */\n    tag_111:\n        /* \"#utility.yul\":549:550   */\n      0x00\n        /* \"#utility.yul\":574:635   */\n      tag_114\n        /* \"#utility.yul\":627:634   */\n      dup5\n        /* \"#utility.yul\":618:624   */\n      dup3\n        /* \"#utility.yul\":607:616   */\n      dup6\n        /* \"#utility.yul\":603:625   */\n      add\n        /* \"#utility.yul\":574:635   */\n      tag_102\n      jump\t// in\n    tag_114:\n        /* \"#utility.yul\":564:635   */\n      swap2\n      pop\n        /* \"#utility.yul\":520:645   */\n      pop\n        /* \"#utility.yul\":307:652   */\n      swap3\n      swap2\n      pop\n      pop\n      jump\t// out\n        /* \"#utility.yul\":658:981   */\n    tag_36:\n        /* \"#utility.yul\":714:720   */\n      0x00\n        /* \"#utility.yul\":763:765   */\n      0x20\n        /* \"#utility.yul\":751:760   */\n      dup3\n        /* \"#utility.yul\":742:749   */\n      dup5\n        /* \"#utility.yul\":738:761   */\n      sub\n        /* \"#utility.yul\":734:766   */\n      slt\n        /* \"#utility.yul\":731:850   */\n      iszero\n      tag_116\n      jumpi\n        /* \"#utility.yul\":769:848   */\n      tag_117\n      tag_113\n      jump\t// in\n    tag_117:\n        /* \"#utility.yul\":731:850   */\n    tag_116:\n        /* \"#utility.yul\":889:890   */\n      0x00\n        /* \"#utility.yul\":914:964   */\n      tag_118\n        /* \"#utility.yul\":956:963   */\n      dup5\n        /* \"#utility.yul\":947:953   */\n      dup3\n        /* \"#utility.yul\":936:945   */\n      dup6\n        /* \"#utility.yul\":932:954   */\n      add\n        /* \"#utility.yul\":914:964   */\n      tag_106\n      jump\t// in\n    tag_118:\n        /* \"#utility.yul\":904:964   */\n      swap2\n      pop\n        /* \"#utility.yul\":860:974   */\n      pop\n        /* \"#utility.yul\":658:981   */\n      swap3\n      swap2\n      pop\n      pop\n      jump\t// out\n        /* \"#utility.yul\":987:1129   */\n    tag_119:\n        /* \"#utility.yul\":1090:1122   */\n      tag_121\n        /* \"#utility.yul\":1116:1121   */\n      dup2\n        /* \"#utility.yul\":1090:1122   */\n      tag_122\n      jump\t// in\n    tag_121:\n        /* \"#utility.yul\":1085:1088   */\n      dup3\n        /* \"#utility.yul\":1078:1123   */\n      mstore\n        /* \"#utility.yul\":987:1129   */\n      pop\n      pop\n      jump\t// out\n        /* \"#utility.yul\":1135:1253   */\n    tag_123:\n        /* \"#utility.yul\":1222:1246   */\n      tag_125\n        /* \"#utility.yul\":1240:1245   */\n      dup2\n        /* \"#utility.yul\":1222:1246   */\n      tag_126\n      jump\t// in\n    tag_125:\n        /* \"#utility.yul\":1217:1220   */\n      dup3\n        /* \"#utility.yul\":1210:1247   */\n      mstore\n        /* \"#utility.yul\":1135:1253   */\n      pop\n      pop\n      jump\t// out\n        /* \"#utility.yul\":1259:1368   */\n    tag_127:\n        /* \"#utility.yul\":1340:1361   */\n      tag_129\n        /* \"#utility.yul\":1355:1360   */\n      dup2\n        /* \"#utility.yul\":1340:1361   */\n      tag_130\n      jump\t// in\n    tag_129:\n        /* \"#utility.yul\":1335:1338   */\n      dup3\n        /* \"#utility.yul\":1328:1362   */\n      mstore\n        /* \"#utility.yul\":1259:1368   */\n      pop\n      pop\n      jump\t// out\n        /* \"#utility.yul\":1374:1483   */\n    tag_131:\n        /* \"#utility.yul\":1455:1476   */\n      tag_133\n        /* \"#utility.yul\":1470:1475   */\n      dup2\n        /* \"#utility.yul\":1455:1476   */\n      tag_134\n      jump\t// in\n    tag_133:\n        /* \"#utility.yul\":1450:1453   */\n      dup3\n        /* \"#utility.yul\":1443:1477   */\n      mstore\n        /* \"#utility.yul\":1374:1483   */\n      pop\n      pop\n      jump\t// out\n        /* \"#utility.yul\":1489:1855   */\n    tag_135:\n        /* \"#utility.yul\":1631:1634   */\n      0x00\n        /* \"#utility.yul\":1652:1719   */\n      tag_137\n        /* \"#utility.yul\":1716:1718   */\n      0x1c\n        /* \"#utility.yul\":1711:1714   */\n      dup4\n        /* \"#utility.yul\":1652:1719   */\n      tag_138\n      jump\t// in\n    tag_137:\n        /* \"#utility.yul\":1645:1719   */\n      swap2\n      pop\n        /* \"#utility.yul\":1728:1821   */\n      tag_139\n        /* \"#utility.yul\":1817:1820   */\n      dup3\n        /* \"#utility.yul\":1728:1821   */\n      tag_140\n      jump\t// in\n    tag_139:\n        /* \"#utility.yul\":1846:1848   */\n      0x20\n        /* \"#utility.yul\":1841:1844   */\n      dup3\n        /* \"#utility.yul\":1837:1849   */\n      add\n        /* \"#utility.yul\":1830:1849   */\n      swap1\n      pop\n        /* \"#utility.yul\":1489:1855   */\n      swap2\n      swap1\n      pop\n      jump\t// out\n        /* \"#utility.yul\":1861:2227   */\n    tag_141:\n        /* \"#utility.yul\":2003:2006   */\n      0x00\n        /* \"#utility.yul\":2024:2091   */\n      tag_143\n        /* \"#utility.yul\":2088:2090   */\n      0x14\n        /* \"#utility.yul\":2083:2086   */\n      dup4\n        /* \"#utility.yul\":2024:2091   */\n      tag_138\n      jump\t// in\n    tag_143:\n        /* \"#utility.yul\":2017:2091   */\n      swap2\n      pop\n        /* \"#utility.yul\":2100:2193   */\n      tag_144\n        /* \"#utility.yul\":2189:2192   */\n      dup3\n        /* \"#utility.yul\":2100:2193   */\n      tag_145\n      jump\t// in\n    tag_144:\n        /* \"#utility.yul\":2218:2220   */\n      0x20\n        /* \"#utility.yul\":2213:2216   */\n      dup3\n        /* \"#utility.yul\":2209:2221   */\n      add\n        /* \"#utility.yul\":2202:2221   */\n      swap1\n      pop\n        /* \"#utility.yul\":1861:2227   */\n      swap2\n      swap1\n      pop\n      jump\t// out\n        /* \"#utility.yul\":2233:2599   */\n    tag_146:\n        /* \"#utility.yul\":2375:2378   */\n      0x00\n        /* \"#utility.yul\":2396:2463   */\n      tag_148\n        /* \"#utility.yul\":2460:2462   */\n      0x30\n        /* \"#utility.yul\":2455:2458   */\n      dup4\n        /* \"#utility.yul\":2396:2463   */\n      tag_138\n      jump\t// in\n    tag_148:\n        /* \"#utility.yul\":2389:2463   */\n      swap2\n      pop\n        /* \"#utility.yul\":2472:2565   */\n      tag_149\n        /* \"#utility.yul\":2561:2564   */\n      dup3\n        /* \"#utility.yul\":2472:2565   */\n      tag_150\n      jump\t// in\n    tag_149:\n        /* \"#utility.yul\":2590:2592   */\n      0x40\n        /* \"#utility.yul\":2585:2588   */\n      dup3\n        /* \"#utility.yul\":2581:2593   */\n      add\n        /* \"#utility.yul\":2574:2593   */\n      swap1\n      pop\n        /* \"#utility.yul\":2233:2599   */\n      swap2\n      swap1\n      pop\n      jump\t// out\n        /* \"#utility.yul\":2605:2723   */\n    tag_151:\n        /* \"#utility.yul\":2692:2716   */\n      tag_153\n        /* \"#utility.yul\":2710:2715   */\n      dup2\n        /* \"#utility.yul\":2692:2716   */\n      tag_154\n      jump\t// in\n    tag_153:\n        /* \"#utility.yul\":2687:2690   */\n      dup3\n        /* \"#utility.yul\":2680:2717   */\n      mstore\n        /* \"#utility.yul\":2605:2723   */\n      pop\n      pop\n      jump\t// out\n        /* \"#utility.yul\":2729:2951   */\n    tag_52:\n        /* \"#utility.yul\":2822:2826   */\n      0x00\n        /* \"#utility.yul\":2860:2862   */\n      0x20\n        /* \"#utility.yul\":2849:2858   */\n      dup3\n        /* \"#utility.yul\":2845:2863   */\n      add\n        /* \"#utility.yul\":2837:2863   */\n      swap1\n      pop\n        /* \"#utility.yul\":2873:2944   */\n      tag_156\n        /* \"#utility.yul\":2941:2942   */\n      0x00\n        /* \"#utility.yul\":2930:2939   */\n      dup4\n        /* \"#utility.yul\":2926:2943   */\n      add\n        /* \"#utility.yul\":2917:2923   */\n      dup5\n        /* \"#utility.yul\":2873:2944   */\n      tag_123\n      jump\t// in\n    tag_156:\n        /* \"#utility.yul\":2729:2951   */\n      swap3\n      swap2\n      pop\n      pop\n      jump\t// out\n        /* \"#utility.yul\":2957:3211   */\n    tag_57:\n        /* \"#utility.yul\":3066:3070   */\n      0x00\n        /* \"#utility.yul\":3104:3106   */\n      0x20\n        /* \"#utility.yul\":3093:3102   */\n      dup3\n        /* \"#utility.yul\":3089:3107   */\n      add\n        /* \"#utility.yul\":3081:3107   */\n      swap1\n      pop\n        /* \"#utility.yul\":3117:3204   */\n      tag_158\n        /* \"#utility.yul\":3201:3202   */\n      0x00\n        /* \"#utility.yul\":3190:3199   */\n      dup4\n        /* \"#utility.yul\":3186:3203   */\n      add\n        /* \"#utility.yul\":3177:3183   */\n      dup5\n        /* \"#utility.yul\":3117:3204   */\n      tag_119\n      jump\t// in\n    tag_158:\n        /* \"#utility.yul\":2957:3211   */\n      swap3\n      swap2\n      pop\n      pop\n      jump\t// out\n        /* \"#utility.yul\":3217:3427   */\n    tag_33:\n        /* \"#utility.yul\":3304:3308   */\n      0x00\n        /* \"#utility.yul\":3342:3344   */\n      0x20\n        /* \"#utility.yul\":3331:3340   */\n      dup3\n        /* \"#utility.yul\":3327:3345   */\n      add\n        /* \"#utility.yul\":3319:3345   */\n      swap1\n      pop\n        /* \"#utility.yul\":3355:3420   */\n      tag_160\n        /* \"#utility.yul\":3417:3418   */\n      0x00\n        /* \"#utility.yul\":3406:3415   */\n      dup4\n        /* \"#utility.yul\":3402:3419   */\n      add\n        /* \"#utility.yul\":3393:3399   */\n      dup5\n        /* \"#utility.yul\":3355:3420   */\n      tag_127\n      jump\t// in\n    tag_160:\n        /* \"#utility.yul\":3217:3427   */\n      swap3\n      swap2\n      pop\n      pop\n      jump\t// out\n        /* \"#utility.yul\":3433:3643   */\n    tag_42:\n        /* \"#utility.yul\":3520:3524   */\n      0x00\n        /* \"#utility.yul\":3558:3560   */\n      0x20\n        /* \"#utility.yul\":3547:3556   */\n      dup3\n        /* \"#utility.yul\":3543:3561   */\n      add\n        /* \"#utility.yul\":3535:3561   */\n      swap1\n      pop\n        /* \"#utility.yul\":3571:3636   */\n      tag_162\n        /* \"#utility.yul\":3633:3634   */\n      0x00\n        /* \"#utility.yul\":3622:3631   */\n      dup4\n        /* \"#utility.yul\":3618:3635   */\n      add\n        /* \"#utility.yul\":3609:3615   */\n      dup5\n        /* \"#utility.yul\":3571:3636   */\n      tag_131\n      jump\t// in\n    tag_162:\n        /* \"#utility.yul\":3433:3643   */\n      swap3\n      swap2\n      pop\n      pop\n      jump\t// out\n        /* \"#utility.yul\":3649:4068   */\n    tag_71:\n        /* \"#utility.yul\":3815:3819   */\n      0x00\n        /* \"#utility.yul\":3853:3855   */\n      0x20\n        /* \"#utility.yul\":3842:3851   */\n      dup3\n        /* \"#utility.yul\":3838:3856   */\n      add\n        /* \"#utility.yul\":3830:3856   */\n      swap1\n      pop\n        /* \"#utility.yul\":3902:3911   */\n      dup2\n        /* \"#utility.yul\":3896:3900   */\n      dup2\n        /* \"#utility.yul\":3892:3912   */\n      sub\n        /* \"#utility.yul\":3888:3889   */\n      0x00\n        /* \"#utility.yul\":3877:3886   */\n      dup4\n        /* \"#utility.yul\":3873:3890   */\n      add\n        /* \"#utility.yul\":3866:3913   */\n      mstore\n        /* \"#utility.yul\":3930:4061   */\n      tag_164\n        /* \"#utility.yul\":4056:4060   */\n      dup2\n        /* \"#utility.yul\":3930:4061   */\n      tag_135\n      jump\t// in\n    tag_164:\n        /* \"#utility.yul\":3922:4061   */\n      swap1\n      pop\n        /* \"#utility.yul\":3649:4068   */\n      swap2\n      swap1\n      pop\n      jump\t// out\n        /* \"#utility.yul\":4074:4493   */\n    tag_75:\n        /* \"#utility.yul\":4240:4244   */\n      0x00\n        /* \"#utility.yul\":4278:4280   */\n      0x20\n        /* \"#utility.yul\":4267:4276   */\n      dup3\n        /* \"#utility.yul\":4263:4281   */\n      add\n        /* \"#utility.yul\":4255:4281   */\n      swap1\n      pop\n        /* \"#utility.yul\":4327:4336   */\n      dup2\n        /* \"#utility.yul\":4321:4325   */\n      dup2\n        /* \"#utility.yul\":4317:4337   */\n      sub\n        /* \"#utility.yul\":4313:4314   */\n      0x00\n        /* \"#utility.yul\":4302:4311   */\n      dup4\n        /* \"#utility.yul\":4298:4315   */\n      add\n        /* \"#utility.yul\":4291:4338   */\n      mstore\n        /* \"#utility.yul\":4355:4486   */\n      tag_166\n        /* \"#utility.yul\":4481:4485   */\n      dup2\n        /* \"#utility.yul\":4355:4486   */\n      tag_141\n      jump\t// in\n    tag_166:\n        /* \"#utility.yul\":4347:4486   */\n      swap1\n      pop\n        /* \"#utility.yul\":4074:4493   */\n      swap2\n      swap1\n      pop\n      jump\t// out\n        /* \"#utility.yul\":4499:4918   */\n    tag_90:\n        /* \"#utility.yul\":4665:4669   */\n      0x00\n        /* \"#utility.yul\":4703:4705   */\n      0x20\n        /* \"#utility.yul\":4692:4701   */\n      dup3\n        /* \"#utility.yul\":4688:4706   */\n      add\n        /* \"#utility.yul\":4680:4706   */\n      swap1\n      pop\n        /* \"#utility.yul\":4752:4761   */\n      dup2\n        /* \"#utility.yul\":4746:4750   */\n      dup2\n        /* \"#utility.yul\":4742:4762   */\n      sub\n        /* \"#utility.yul\":4738:4739   */\n      0x00\n        /* \"#utility.yul\":4727:4736   */\n      dup4\n        /* \"#utility.yul\":4723:4740   */\n      add\n        /* \"#utility.yul\":4716:4763   */\n      mstore\n        /* \"#utility.yul\":4780:4911   */\n      tag_168\n        /* \"#utility.yul\":4906:4910   */\n      dup2\n        /* \"#utility.yul\":4780:4911   */\n      tag_146\n      jump\t// in\n    tag_168:\n        /* \"#utility.yul\":4772:4911   */\n      swap1\n      pop\n        /* \"#utility.yul\":4499:4918   */\n      swap2\n      swap1\n      pop\n      jump\t// out\n        /* \"#utility.yul\":4924:5146   */\n    tag_19:\n        /* \"#utility.yul\":5017:5021   */\n      0x00\n        /* \"#utility.yul\":5055:5057   */\n      0x20\n        /* \"#utility.yul\":5044:5053   */\n      dup3\n        /* \"#utility.yul\":5040:5058   */\n      add\n        /* \"#utility.yul\":5032:5058   */\n      swap1\n      pop\n        /* \"#utility.yul\":5068:5139   */\n      tag_170\n        /* \"#utility.yul\":5136:5137   */\n      0x00\n        /* \"#utility.yul\":5125:5134   */\n      dup4\n        /* \"#utility.yul\":5121:5138   */\n      add\n        /* \"#utility.yul\":5112:5118   */\n      dup5\n        /* \"#utility.yul\":5068:5139   */\n      tag_151\n      jump\t// in\n    tag_170:\n        /* \"#utility.yul\":4924:5146   */\n      swap3\n      swap2\n      pop\n      pop\n      jump\t// out\n        /* \"#utility.yul\":5233:5402   */\n    tag_138:\n        /* \"#utility.yul\":5317:5328   */\n      0x00\n        /* \"#utility.yul\":5351:5357   */\n      dup3\n        /* \"#utility.yul\":5346:5349   */\n      dup3\n        /* \"#utility.yul\":5339:5358   */\n      mstore\n        /* \"#utility.yul\":5391:5395   */\n      0x20\n        /* \"#utility.yul\":5386:5389   */\n      dup3\n        /* \"#utility.yul\":5382:5396   */\n      add\n        /* \"#utility.yul\":5367:5396   */\n      swap1\n      pop\n        /* \"#utility.yul\":5233:5402   */\n      swap3\n      swap2\n      pop\n      pop\n      jump\t// out\n        /* \"#utility.yul\":5408:5504   */\n    tag_126:\n        /* \"#utility.yul\":5445:5452   */\n      0x00\n        /* \"#utility.yul\":5474:5498   */\n      tag_175\n        /* \"#utility.yul\":5492:5497   */\n      dup3\n        /* \"#utility.yul\":5474:5498   */\n      tag_176\n      jump\t// in\n    tag_175:\n        /* \"#utility.yul\":5463:5498   */\n      swap1\n      pop\n        /* \"#utility.yul\":5408:5504   */\n      swap2\n      swap1\n      pop\n      jump\t// out\n        /* \"#utility.yul\":5510:5614   */\n    tag_122:\n        /* \"#utility.yul\":5555:5562   */\n      0x00\n        /* \"#utility.yul\":5584:5608   */\n      tag_178\n        /* \"#utility.yul\":5602:5607   */\n      dup3\n        /* \"#utility.yul\":5584:5608   */\n      tag_176\n      jump\t// in\n    tag_178:\n        /* \"#utility.yul\":5573:5608   */\n      swap1\n      pop\n        /* \"#utility.yul\":5510:5614   */\n      swap2\n      swap1\n      pop\n      jump\t// out\n        /* \"#utility.yul\":5620:5710   */\n    tag_130:\n        /* \"#utility.yul\":5654:5661   */\n      0x00\n        /* \"#utility.yul\":5697:5702   */\n      dup2\n        /* \"#utility.yul\":5690:5703   */\n      iszero\n        /* \"#utility.yul\":5683:5704   */\n      iszero\n        /* \"#utility.yul\":5672:5704   */\n      swap1\n      pop\n        /* \"#utility.yul\":5620:5710   */\n      swap2\n      swap1\n      pop\n      jump\t// out\n        /* \"#utility.yul\":5716:5805   */\n    tag_134:\n        /* \"#utility.yul\":5750:5757   */\n      0x00\n        /* \"#utility.yul\":5793:5798   */\n      dup2\n        /* \"#utility.yul\":5790:5791   */\n      0x00\n        /* \"#utility.yul\":5779:5799   */\n      signextend\n        /* \"#utility.yul\":5768:5799   */\n      swap1\n      pop\n        /* \"#utility.yul\":5716:5805   */\n      swap2\n      swap1\n      pop\n      jump\t// out\n        /* \"#utility.yul\":5811:5937   */\n    tag_176:\n        /* \"#utility.yul\":5848:5855   */\n      0x00\n        /* \"#utility.yul\":5888:5930   */\n      0xffffffffffffffffffffffffffffffffffffffff\n        /* \"#utility.yul\":5881:5886   */\n      dup3\n        /* \"#utility.yul\":5877:5931   */\n      and\n        /* \"#utility.yul\":5866:5931   */\n      swap1\n      pop\n        /* \"#utility.yul\":5811:5937   */\n      swap2\n      swap1\n      pop\n      jump\t// out\n        /* \"#utility.yul\":5943:6020   */\n    tag_154:\n        /* \"#utility.yul\":5980:5987   */\n      0x00\n        /* \"#utility.yul\":6009:6014   */\n      dup2\n        /* \"#utility.yul\":5998:6014   */\n      swap1\n      pop\n        /* \"#utility.yul\":5943:6020   */\n      swap2\n      swap1\n      pop\n      jump\t// out\n        /* \"#utility.yul\":6149:6266   */\n    tag_113:\n        /* \"#utility.yul\":6258:6259   */\n      0x00\n        /* \"#utility.yul\":6255:6256   */\n      dup1\n        /* \"#utility.yul\":6248:6260   */\n      revert\n        /* \"#utility.yul\":6272:6450   */\n    tag_140:\n        /* \"#utility.yul\":6412:6442   */\n      0x636865636b7320666f72206f776e6572206f6620636f6e747261637400000000\n        /* \"#utility.yul\":6408:6409   */\n      0x00\n        /* \"#utility.yul\":6400:6406   */\n      dup3\n        /* \"#utility.yul\":6396:6410   */\n      add\n        /* \"#utility.yul\":6389:6443   */\n      mstore\n        /* \"#utility.yul\":6272:6450   */\n      pop\n      jump\t// out\n        /* \"#utility.yul\":6456:6626   */\n    tag_145:\n        /* \"#utility.yul\":6596:6618   */\n      0x6e6f20656874657220696e20636f6e7472616374000000000000000000000000\n        /* \"#utility.yul\":6592:6593   */\n      0x00\n        /* \"#utility.yul\":6584:6590   */\n      dup3\n        /* \"#utility.yul\":6580:6594   */\n      add\n        /* \"#utility.yul\":6573:6619   */\n      mstore\n        /* \"#utility.yul\":6456:6626   */\n      pop\n      jump\t// out\n        /* \"#utility.yul\":6632:6867   */\n    tag_150:\n        /* \"#utility.yul\":6772:6806   */\n      0x6f6e6c792030206f72203120617320706172616d6574657220666f7220746865\n        /* \"#utility.yul\":6768:6769   */\n      0x00\n        /* \"#utility.yul\":6760:6766   */\n      dup3\n        /* \"#utility.yul\":6756:6770   */\n      add\n        /* \"#utility.yul\":6749:6807   */\n      mstore\n        /* \"#utility.yul\":6841:6859   */\n      0x207365744c65642066756e6374696f6e00000000000000000000000000000000\n        /* \"#utility.yul\":6836:6838   */\n      0x20\n        /* \"#utility.yul\":6828:6834   */\n      dup3\n        /* \"#utility.yul\":6824:6839   */\n      add\n        /* \"#utility.yul\":6817:6860   */\n      mstore\n        /* \"#utility.yul\":6632:6867   */\n      pop\n      jump\t// out\n        /* \"#utility.yul\":6873:7011   */\n    tag_105:\n        /* \"#utility.yul\":6954:6986   */\n      tag_190\n        /* \"#utility.yul\":6980:6985   */\n      dup2\n        /* \"#utility.yul\":6954:6986   */\n      tag_122\n      jump\t// in\n    tag_190:\n        /* \"#utility.yul\":6947:6952   */\n      dup2\n        /* \"#utility.yul\":6944:6987   */\n      eq\n        /* \"#utility.yul\":6934:7005   */\n      tag_191\n      jumpi\n        /* \"#utility.yul\":7001:7002   */\n      0x00\n        /* \"#utility.yul\":6998:6999   */\n      dup1\n        /* \"#utility.yul\":6991:7003   */\n      revert\n        /* \"#utility.yul\":6934:7005   */\n    tag_191:\n        /* \"#utility.yul\":6873:7011   */\n      pop\n      jump\t// out\n        /* \"#utility.yul\":7017:7133   */\n    tag_109:\n        /* \"#utility.yul\":7087:7108   */\n      tag_193\n        /* \"#utility.yul\":7102:7107   */\n      dup2\n        /* \"#utility.yul\":7087:7108   */\n      tag_134\n      jump\t// in\n    tag_193:\n        /* \"#utility.yul\":7080:7085   */\n      dup2\n        /* \"#utility.yul\":7077:7109   */\n      eq\n        /* \"#utility.yul\":7067:7127   */\n      tag_194\n      jumpi\n        /* \"#utility.yul\":7123:7124   */\n      0x00\n        /* \"#utility.yul\":7120:7121   */\n      dup1\n        /* \"#utility.yul\":7113:7125   */\n      revert\n        /* \"#utility.yul\":7067:7127   */\n    tag_194:\n        /* \"#utility.yul\":7017:7133   */\n      pop\n      jump\t// out\n\n    auxdata: 0xa2646970667358221220db40f06bfaad9aa9f1e511161245d66fafdc5305ef2288673474ed0c4b9aa27e64736f6c63430008070033\n}\n",
				"bytecode": {
					"linkReferences": {},
					"object": "608060405234801561001057600080fd5b50336000806101000a81548173ffffffffffffffffffffffffffffffffffffffff021916908373ffffffffffffffffffffffffffffffffffffffff160217905550610ada806100606000396000f3fe6080604052600436106100a75760003560e01c80637291d59b116100645780637291d59b1461016a5780638863dd1a14610195578063893d20e8146101be5780638b7afe2e146101e9578063a548095914610214578063e717ea611461023f576100a7565b806308b6ff56146100ac57806312065fe0146100d7578063224ee04f1461010257806341c0e1b5146101195780635ca26ee11461013057806361df9af91461014e575b600080fd5b3480156100b857600080fd5b506100c161026a565b6040516100ce919061093d565b60405180910390f35b3480156100e357600080fd5b506100ec6102aa565b6040516100f9919061093d565b60405180910390f35b34801561010e57600080fd5b506101176102eb565b005b34801561012557600080fd5b5061012e610405565b005b6101386104ce565b60405161014591906108a7565b60405180910390f35b61016860048036038101906101639190610790565b610525565b005b34801561017657600080fd5b5061017f6105e8565b60405161018c91906108c2565b60405180910390f35b3480156101a157600080fd5b506101bc60048036038101906101b79190610763565b6105fb565b005b3480156101ca57600080fd5b506101d36106cc565b6040516101e09190610871565b60405180910390f35b3480156101f557600080fd5b506101fe6106f5565b60405161020b919061088c565b60405180910390f35b34801561022057600080fd5b5061022961071b565b60405161023691906108c2565b60405180910390f35b34801561024b57600080fd5b50610254610731565b604051610261919061088c565b60405180910390f35b60008060009054906101000a900473ffffffffffffffffffffffffffffffffffffffff1673ffffffffffffffffffffffffffffffffffffffff1631905090565b6000600160009054906101000a900473ffffffffffffffffffffffffffffffffffffffff1673ffffffffffffffffffffffffffffffffffffffff1631905090565b60008054906101000a900473ffffffffffffffffffffffffffffffffffffffff1673ffffffffffffffffffffffffffffffffffffffff163373ffffffffffffffffffffffffffffffffffffffff1614610379576040517f08c379a0000000000000000000000000000000000000000000000000000000008152600401610370906108dd565b60405180910390fd5b600047116103bc576040517f08c379a00000000000000000000000000000000000000000000000000000000081526004016103b3906108fd565b60405180910390fd5b3373ffffffffffffffffffffffffffffffffffffffff166108fc479081150290604051600060405180830381858888f19350505050158015610402573d6000803e3d6000fd5b50565b60008054906101000a900473ffffffffffffffffffffffffffffffffffffffff1673ffffffffffffffffffffffffffffffffffffffff163373ffffffffffffffffffffffffffffffffffffffff1614610493576040517f08c379a000000000000000000000000000000000000000000000000000000000815260040161048a906108dd565b60405180910390fd5b600160009054906101000a900473ffffffffffffffffffffffffffffffffffffffff1673ffffffffffffffffffffffffffffffffffffffff16ff5b60006104d8610731565b73ffffffffffffffffffffffffffffffffffffffff166108fc349081150290604051600060405180830381858888f1935050505015801561051d573d6000803e3d6000fd5b506001905090565b60018160000b148061053a575060008160000b145b610579576040517f08c379a00000000000000000000000000000000000000000000000000000000081526004016105709061091d565b60405180910390fd5b80600060146101000a81548160ff021916908360000b60ff16021790555061059f610731565b73ffffffffffffffffffffffffffffffffffffffff166108fc349081150290604051600060405180830381858888f193505050501580156105e4573d6000803e3d6000fd5b5050565b600060149054906101000a900460000b81565b60008054906101000a900473ffffffffffffffffffffffffffffffffffffffff1673ffffffffffffffffffffffffffffffffffffffff163373ffffffffffffffffffffffffffffffffffffffff1614610689576040517f08c379a0000000000000000000000000000000000000000000000000000000008152600401610680906108dd565b60405180910390fd5b806000806101000a81548173ffffffffffffffffffffffffffffffffffffffff021916908373ffffffffffffffffffffffffffffffffffffffff16021790555050565b60008060009054906101000a900473ffffffffffffffffffffffffffffffffffffffff16905090565b600160009054906101000a900473ffffffffffffffffffffffffffffffffffffffff1681565b60008060149054906101000a900460000b905090565b600030905090565b60008135905061074881610a76565b92915050565b60008135905061075d81610a8d565b92915050565b600060208284031215610779576107786109d0565b5b600061078784828501610739565b91505092915050565b6000602082840312156107a6576107a56109d0565b5b60006107b48482850161074e565b91505092915050565b6107c68161097b565b82525050565b6107d581610969565b82525050565b6107e48161098d565b82525050565b6107f381610999565b82525050565b6000610806601c83610958565b9150610811826109d5565b602082019050919050565b6000610829601483610958565b9150610834826109fe565b602082019050919050565b600061084c603083610958565b915061085782610a27565b604082019050919050565b61086b816109c6565b82525050565b600060208201905061088660008301846107cc565b92915050565b60006020820190506108a160008301846107bd565b92915050565b60006020820190506108bc60008301846107db565b92915050565b60006020820190506108d760008301846107ea565b92915050565b600060208201905081810360008301526108f6816107f9565b9050919050565b600060208201905081810360008301526109168161081c565b9050919050565b600060208201905081810360008301526109368161083f565b9050919050565b60006020820190506109526000830184610862565b92915050565b600082825260208201905092915050565b6000610974826109a6565b9050919050565b6000610986826109a6565b9050919050565b60008115159050919050565b60008160000b9050919050565b600073ffffffffffffffffffffffffffffffffffffffff82169050919050565b6000819050919050565b600080fd5b7f636865636b7320666f72206f776e6572206f6620636f6e747261637400000000600082015250565b7f6e6f20656874657220696e20636f6e7472616374000000000000000000000000600082015250565b7f6f6e6c792030206f72203120617320706172616d6574657220666f722074686560008201527f207365744c65642066756e6374696f6e00000000000000000000000000000000602082015250565b610a7f8161097b565b8114610a8a57600080fd5b50565b610a9681610999565b8114610aa157600080fd5b5056fea2646970667358221220db40f06bfaad9aa9f1e511161245d66fafdc5305ef2288673474ed0c4b9aa27e64736f6c63430008070033",
					"opcodes": "PUSH1 0x80 PUSH1 0x40 MSTORE CALLVALUE DUP1 ISZERO PUSH2 0x10 JUMPI PUSH1 0x0 DUP1 REVERT JUMPDEST POP CALLER PUSH1 0x0 DUP1 PUSH2 0x100 EXP DUP2 SLOAD DUP2 PUSH20 0xFFFFFFFFFFFFFFFFFFFFFFFFFFFFFFFFFFFFFFFF MUL NOT AND SWAP1 DUP4 PUSH20 0xFFFFFFFFFFFFFFFFFFFFFFFFFFFFFFFFFFFFFFFF AND MUL OR SWAP1 SSTORE POP PUSH2 0xADA DUP1 PUSH2 0x60 PUSH1 0x0 CODECOPY PUSH1 0x0 RETURN INVALID PUSH1 0x80 PUSH1 0x40 MSTORE PUSH1 0x4 CALLDATASIZE LT PUSH2 0xA7 JUMPI PUSH1 0x0 CALLDATALOAD PUSH1 0xE0 SHR DUP1 PUSH4 0x7291D59B GT PUSH2 0x64 JUMPI DUP1 PUSH4 0x7291D59B EQ PUSH2 0x16A JUMPI DUP1 PUSH4 0x8863DD1A EQ PUSH2 0x195 JUMPI DUP1 PUSH4 0x893D20E8 EQ PUSH2 0x1BE JUMPI DUP1 PUSH4 0x8B7AFE2E EQ PUSH2 0x1E9 JUMPI DUP1 PUSH4 0xA5480959 EQ PUSH2 0x214 JUMPI DUP1 PUSH4 0xE717EA61 EQ PUSH2 0x23F JUMPI PUSH2 0xA7 JUMP JUMPDEST DUP1 PUSH4 0x8B6FF56 EQ PUSH2 0xAC JUMPI DUP1 PUSH4 0x12065FE0 EQ PUSH2 0xD7 JUMPI DUP1 PUSH4 0x224EE04F EQ PUSH2 0x102 JUMPI DUP1 PUSH4 0x41C0E1B5 EQ PUSH2 0x119 JUMPI DUP1 PUSH4 0x5CA26EE1 EQ PUSH2 0x130 JUMPI DUP1 PUSH4 0x61DF9AF9 EQ PUSH2 0x14E JUMPI JUMPDEST PUSH1 0x0 DUP1 REVERT JUMPDEST CALLVALUE DUP1 ISZERO PUSH2 0xB8 JUMPI PUSH1 0x0 DUP1 REVERT JUMPDEST POP PUSH2 0xC1 PUSH2 0x26A JUMP JUMPDEST PUSH1 0x40 MLOAD PUSH2 0xCE SWAP2 SWAP1 PUSH2 0x93D JUMP JUMPDEST PUSH1 0x40 MLOAD DUP1 SWAP2 SUB SWAP1 RETURN JUMPDEST CALLVALUE DUP1 ISZERO PUSH2 0xE3 JUMPI PUSH1 0x0 DUP1 REVERT JUMPDEST POP PUSH2 0xEC PUSH2 0x2AA JUMP JUMPDEST PUSH1 0x40 MLOAD PUSH2 0xF9 SWAP2 SWAP1 PUSH2 0x93D JUMP JUMPDEST PUSH1 0x40 MLOAD DUP1 SWAP2 SUB SWAP1 RETURN JUMPDEST CALLVALUE DUP1 ISZERO PUSH2 0x10E JUMPI PUSH1 0x0 DUP1 REVERT JUMPDEST POP PUSH2 0x117 PUSH2 0x2EB JUMP JUMPDEST STOP JUMPDEST CALLVALUE DUP1 ISZERO PUSH2 0x125 JUMPI PUSH1 0x0 DUP1 REVERT JUMPDEST POP PUSH2 0x12E PUSH2 0x405 JUMP JUMPDEST STOP JUMPDEST PUSH2 0x138 PUSH2 0x4CE JUMP JUMPDEST PUSH1 0x40 MLOAD PUSH2 0x145 SWAP2 SWAP1 PUSH2 0x8A7 JUMP JUMPDEST PUSH1 0x40 MLOAD DUP1 SWAP2 SUB SWAP1 RETURN JUMPDEST PUSH2 0x168 PUSH1 0x4 DUP1 CALLDATASIZE SUB DUP2 ADD SWAP1 PUSH2 0x163 SWAP2 SWAP1 PUSH2 0x790 JUMP JUMPDEST PUSH2 0x525 JUMP JUMPDEST STOP JUMPDEST CALLVALUE DUP1 ISZERO PUSH2 0x176 JUMPI PUSH1 0x0 DUP1 REVERT JUMPDEST POP PUSH2 0x17F PUSH2 0x5E8 JUMP JUMPDEST PUSH1 0x40 MLOAD PUSH2 0x18C SWAP2 SWAP1 PUSH2 0x8C2 JUMP JUMPDEST PUSH1 0x40 MLOAD DUP1 SWAP2 SUB SWAP1 RETURN JUMPDEST CALLVALUE DUP1 ISZERO PUSH2 0x1A1 JUMPI PUSH1 0x0 DUP1 REVERT JUMPDEST POP PUSH2 0x1BC PUSH1 0x4 DUP1 CALLDATASIZE SUB DUP2 ADD SWAP1 PUSH2 0x1B7 SWAP2 SWAP1 PUSH2 0x763 JUMP JUMPDEST PUSH2 0x5FB JUMP JUMPDEST STOP JUMPDEST CALLVALUE DUP1 ISZERO PUSH2 0x1CA JUMPI PUSH1 0x0 DUP1 REVERT JUMPDEST POP PUSH2 0x1D3 PUSH2 0x6CC JUMP JUMPDEST PUSH1 0x40 MLOAD PUSH2 0x1E0 SWAP2 SWAP1 PUSH2 0x871 JUMP JUMPDEST PUSH1 0x40 MLOAD DUP1 SWAP2 SUB SWAP1 RETURN JUMPDEST CALLVALUE DUP1 ISZERO PUSH2 0x1F5 JUMPI PUSH1 0x0 DUP1 REVERT JUMPDEST POP PUSH2 0x1FE PUSH2 0x6F5 JUMP JUMPDEST PUSH1 0x40 MLOAD PUSH2 0x20B SWAP2 SWAP1 PUSH2 0x88C JUMP JUMPDEST PUSH1 0x40 MLOAD DUP1 SWAP2 SUB SWAP1 RETURN JUMPDEST CALLVALUE DUP1 ISZERO PUSH2 0x220 JUMPI PUSH1 0x0 DUP1 REVERT JUMPDEST POP PUSH2 0x229 PUSH2 0x71B JUMP JUMPDEST PUSH1 0x40 MLOAD PUSH2 0x236 SWAP2 SWAP1 PUSH2 0x8C2 JUMP JUMPDEST PUSH1 0x40 MLOAD DUP1 SWAP2 SUB SWAP1 RETURN JUMPDEST CALLVALUE DUP1 ISZERO PUSH2 0x24B JUMPI PUSH1 0x0 DUP1 REVERT JUMPDEST POP PUSH2 0x254 PUSH2 0x731 JUMP JUMPDEST PUSH1 0x40 MLOAD PUSH2 0x261 SWAP2 SWAP1 PUSH2 0x88C JUMP JUMPDEST PUSH1 0x40 MLOAD DUP1 SWAP2 SUB SWAP1 RETURN JUMPDEST PUSH1 0x0 DUP1 PUSH1 0x0 SWAP1 SLOAD SWAP1 PUSH2 0x100 EXP SWAP1 DIV PUSH20 0xFFFFFFFFFFFFFFFFFFFFFFFFFFFFFFFFFFFFFFFF AND PUSH20 0xFFFFFFFFFFFFFFFFFFFFFFFFFFFFFFFFFFFFFFFF AND BALANCE SWAP1 POP SWAP1 JUMP JUMPDEST PUSH1 0x0 PUSH1 0x1 PUSH1 0x0 SWAP1 SLOAD SWAP1 PUSH2 0x100 EXP SWAP1 DIV PUSH20 0xFFFFFFFFFFFFFFFFFFFFFFFFFFFFFFFFFFFFFFFF AND PUSH20 0xFFFFFFFFFFFFFFFFFFFFFFFFFFFFFFFFFFFFFFFF AND BALANCE SWAP1 POP SWAP1 JUMP JUMPDEST PUSH1 0x0 DUP1 SLOAD SWAP1 PUSH2 0x100 EXP SWAP1 DIV PUSH20 0xFFFFFFFFFFFFFFFFFFFFFFFFFFFFFFFFFFFFFFFF AND PUSH20 0xFFFFFFFFFFFFFFFFFFFFFFFFFFFFFFFFFFFFFFFF AND CALLER PUSH20 0xFFFFFFFFFFFFFFFFFFFFFFFFFFFFFFFFFFFFFFFF AND EQ PUSH2 0x379 JUMPI PUSH1 0x40 MLOAD PUSH32 0x8C379A000000000000000000000000000000000000000000000000000000000 DUP2 MSTORE PUSH1 0x4 ADD PUSH2 0x370 SWAP1 PUSH2 0x8DD JUMP JUMPDEST PUSH1 0x40 MLOAD DUP1 SWAP2 SUB SWAP1 REVERT JUMPDEST PUSH1 0x0 SELFBALANCE GT PUSH2 0x3BC JUMPI PUSH1 0x40 MLOAD PUSH32 0x8C379A000000000000000000000000000000000000000000000000000000000 DUP2 MSTORE PUSH1 0x4 ADD PUSH2 0x3B3 SWAP1 PUSH2 0x8FD JUMP JUMPDEST PUSH1 0x40 MLOAD DUP1 SWAP2 SUB SWAP1 REVERT JUMPDEST CALLER PUSH20 0xFFFFFFFFFFFFFFFFFFFFFFFFFFFFFFFFFFFFFFFF AND PUSH2 0x8FC SELFBALANCE SWAP1 DUP2 ISZERO MUL SWAP1 PUSH1 0x40 MLOAD PUSH1 0x0 PUSH1 0x40 MLOAD DUP1 DUP4 SUB DUP2 DUP6 DUP9 DUP9 CALL SWAP4 POP POP POP POP ISZERO DUP1 ISZERO PUSH2 0x402 JUMPI RETURNDATASIZE PUSH1 0x0 DUP1 RETURNDATACOPY RETURNDATASIZE PUSH1 0x0 REVERT JUMPDEST POP JUMP JUMPDEST PUSH1 0x0 DUP1 SLOAD SWAP1 PUSH2 0x100 EXP SWAP1 DIV PUSH20 0xFFFFFFFFFFFFFFFFFFFFFFFFFFFFFFFFFFFFFFFF AND PUSH20 0xFFFFFFFFFFFFFFFFFFFFFFFFFFFFFFFFFFFFFFFF AND CALLER PUSH20 0xFFFFFFFFFFFFFFFFFFFFFFFFFFFFFFFFFFFFFFFF AND EQ PUSH2 0x493 JUMPI PUSH1 0x40 MLOAD PUSH32 0x8C379A000000000000000000000000000000000000000000000000000000000 DUP2 MSTORE PUSH1 0x4 ADD PUSH2 0x48A SWAP1 PUSH2 0x8DD JUMP JUMPDEST PUSH1 0x40 MLOAD DUP1 SWAP2 SUB SWAP1 REVERT JUMPDEST PUSH1 0x1 PUSH1 0x0 SWAP1 SLOAD SWAP1 PUSH2 0x100 EXP SWAP1 DIV PUSH20 0xFFFFFFFFFFFFFFFFFFFFFFFFFFFFFFFFFFFFFFFF AND PUSH20 0xFFFFFFFFFFFFFFFFFFFFFFFFFFFFFFFFFFFFFFFF AND SELFDESTRUCT JUMPDEST PUSH1 0x0 PUSH2 0x4D8 PUSH2 0x731 JUMP JUMPDEST PUSH20 0xFFFFFFFFFFFFFFFFFFFFFFFFFFFFFFFFFFFFFFFF AND PUSH2 0x8FC CALLVALUE SWAP1 DUP2 ISZERO MUL SWAP1 PUSH1 0x40 MLOAD PUSH1 0x0 PUSH1 0x40 MLOAD DUP1 DUP4 SUB DUP2 DUP6 DUP9 DUP9 CALL SWAP4 POP POP POP POP ISZERO DUP1 ISZERO PUSH2 0x51D JUMPI RETURNDATASIZE PUSH1 0x0 DUP1 RETURNDATACOPY RETURNDATASIZE PUSH1 0x0 REVERT JUMPDEST POP PUSH1 0x1 SWAP1 POP SWAP1 JUMP JUMPDEST PUSH1 0x1 DUP2 PUSH1 0x0 SIGNEXTEND EQ DUP1 PUSH2 0x53A JUMPI POP PUSH1 0x0 DUP2 PUSH1 0x0 SIGNEXTEND EQ JUMPDEST PUSH2 0x579 JUMPI PUSH1 0x40 MLOAD PUSH32 0x8C379A000000000000000000000000000000000000000000000000000000000 DUP2 MSTORE PUSH1 0x4 ADD PUSH2 0x570 SWAP1 PUSH2 0x91D JUMP JUMPDEST PUSH1 0x40 MLOAD DUP1 SWAP2 SUB SWAP1 REVERT JUMPDEST DUP1 PUSH1 0x0 PUSH1 0x14 PUSH2 0x100 EXP DUP2 SLOAD DUP2 PUSH1 0xFF MUL NOT AND SWAP1 DUP4 PUSH1 0x0 SIGNEXTEND PUSH1 0xFF AND MUL OR SWAP1 SSTORE POP PUSH2 0x59F PUSH2 0x731 JUMP JUMPDEST PUSH20 0xFFFFFFFFFFFFFFFFFFFFFFFFFFFFFFFFFFFFFFFF AND PUSH2 0x8FC CALLVALUE SWAP1 DUP2 ISZERO MUL SWAP1 PUSH1 0x40 MLOAD PUSH1 0x0 PUSH1 0x40 MLOAD DUP1 DUP4 SUB DUP2 DUP6 DUP9 DUP9 CALL SWAP4 POP POP POP POP ISZERO DUP1 ISZERO PUSH2 0x5E4 JUMPI RETURNDATASIZE PUSH1 0x0 DUP1 RETURNDATACOPY RETURNDATASIZE PUSH1 0x0 REVERT JUMPDEST POP POP JUMP JUMPDEST PUSH1 0x0 PUSH1 0x14 SWAP1 SLOAD SWAP1 PUSH2 0x100 EXP SWAP1 DIV PUSH1 0x0 SIGNEXTEND DUP2 JUMP JUMPDEST PUSH1 0x0 DUP1 SLOAD SWAP1 PUSH2 0x100 EXP SWAP1 DIV PUSH20 0xFFFFFFFFFFFFFFFFFFFFFFFFFFFFFFFFFFFFFFFF AND PUSH20 0xFFFFFFFFFFFFFFFFFFFFFFFFFFFFFFFFFFFFFFFF AND CALLER PUSH20 0xFFFFFFFFFFFFFFFFFFFFFFFFFFFFFFFFFFFFFFFF AND EQ PUSH2 0x689 JUMPI PUSH1 0x40 MLOAD PUSH32 0x8C379A000000000000000000000000000000000000000000000000000000000 DUP2 MSTORE PUSH1 0x4 ADD PUSH2 0x680 SWAP1 PUSH2 0x8DD JUMP JUMPDEST PUSH1 0x40 MLOAD DUP1 SWAP2 SUB SWAP1 REVERT JUMPDEST DUP1 PUSH1 0x0 DUP1 PUSH2 0x100 EXP DUP2 SLOAD DUP2 PUSH20 0xFFFFFFFFFFFFFFFFFFFFFFFFFFFFFFFFFFFFFFFF MUL NOT AND SWAP1 DUP4 PUSH20 0xFFFFFFFFFFFFFFFFFFFFFFFFFFFFFFFFFFFFFFFF AND MUL OR SWAP1 SSTORE POP POP JUMP JUMPDEST PUSH1 0x0 DUP1 PUSH1 0x0 SWAP1 SLOAD SWAP1 PUSH2 0x100 EXP SWAP1 DIV PUSH20 0xFFFFFFFFFFFFFFFFFFFFFFFFFFFFFFFFFFFFFFFF AND SWAP1 POP SWAP1 JUMP JUMPDEST PUSH1 0x1 PUSH1 0x0 SWAP1 SLOAD SWAP1 PUSH2 0x100 EXP SWAP1 DIV PUSH20 0xFFFFFFFFFFFFFFFFFFFFFFFFFFFFFFFFFFFFFFFF AND DUP2 JUMP JUMPDEST PUSH1 0x0 DUP1 PUSH1 0x14 SWAP1 SLOAD SWAP1 PUSH2 0x100 EXP SWAP1 DIV PUSH1 0x0 SIGNEXTEND SWAP1 POP SWAP1 JUMP JUMPDEST PUSH1 0x0 ADDRESS SWAP1 POP SWAP1 JUMP JUMPDEST PUSH1 0x0 DUP2 CALLDATALOAD SWAP1 POP PUSH2 0x748 DUP2 PUSH2 0xA76 JUMP JUMPDEST SWAP3 SWAP2 POP POP JUMP JUMPDEST PUSH1 0x0 DUP2 CALLDATALOAD SWAP1 POP PUSH2 0x75D DUP2 PUSH2 0xA8D JUMP JUMPDEST SWAP3 SWAP2 POP POP JUMP JUMPDEST PUSH1 0x0 PUSH1 0x20 DUP3 DUP5 SUB SLT ISZERO PUSH2 0x779 JUMPI PUSH2 0x778 PUSH2 0x9D0 JUMP JUMPDEST JUMPDEST PUSH1 0x0 PUSH2 0x787 DUP5 DUP3 DUP6 ADD PUSH2 0x739 JUMP JUMPDEST SWAP2 POP POP SWAP3 SWAP2 POP POP JUMP JUMPDEST PUSH1 0x0 PUSH1 0x20 DUP3 DUP5 SUB SLT ISZERO PUSH2 0x7A6 JUMPI PUSH2 0x7A5 PUSH2 0x9D0 JUMP JUMPDEST JUMPDEST PUSH1 0x0 PUSH2 0x7B4 DUP5 DUP3 DUP6 ADD PUSH2 0x74E JUMP JUMPDEST SWAP2 POP POP SWAP3 SWAP2 POP POP JUMP JUMPDEST PUSH2 0x7C6 DUP2 PUSH2 0x97B JUMP JUMPDEST DUP3 MSTORE POP POP JUMP JUMPDEST PUSH2 0x7D5 DUP2 PUSH2 0x969 JUMP JUMPDEST DUP3 MSTORE POP POP JUMP JUMPDEST PUSH2 0x7E4 DUP2 PUSH2 0x98D JUMP JUMPDEST DUP3 MSTORE POP POP JUMP JUMPDEST PUSH2 0x7F3 DUP2 PUSH2 0x999 JUMP JUMPDEST DUP3 MSTORE POP POP JUMP JUMPDEST PUSH1 0x0 PUSH2 0x806 PUSH1 0x1C DUP4 PUSH2 0x958 JUMP JUMPDEST SWAP2 POP PUSH2 0x811 DUP3 PUSH2 0x9D5 JUMP JUMPDEST PUSH1 0x20 DUP3 ADD SWAP1 POP SWAP2 SWAP1 POP JUMP JUMPDEST PUSH1 0x0 PUSH2 0x829 PUSH1 0x14 DUP4 PUSH2 0x958 JUMP JUMPDEST SWAP2 POP PUSH2 0x834 DUP3 PUSH2 0x9FE JUMP JUMPDEST PUSH1 0x20 DUP3 ADD SWAP1 POP SWAP2 SWAP1 POP JUMP JUMPDEST PUSH1 0x0 PUSH2 0x84C PUSH1 0x30 DUP4 PUSH2 0x958 JUMP JUMPDEST SWAP2 POP PUSH2 0x857 DUP3 PUSH2 0xA27 JUMP JUMPDEST PUSH1 0x40 DUP3 ADD SWAP1 POP SWAP2 SWAP1 POP JUMP JUMPDEST PUSH2 0x86B DUP2 PUSH2 0x9C6 JUMP JUMPDEST DUP3 MSTORE POP POP JUMP JUMPDEST PUSH1 0x0 PUSH1 0x20 DUP3 ADD SWAP1 POP PUSH2 0x886 PUSH1 0x0 DUP4 ADD DUP5 PUSH2 0x7CC JUMP JUMPDEST SWAP3 SWAP2 POP POP JUMP JUMPDEST PUSH1 0x0 PUSH1 0x20 DUP3 ADD SWAP1 POP PUSH2 0x8A1 PUSH1 0x0 DUP4 ADD DUP5 PUSH2 0x7BD JUMP JUMPDEST SWAP3 SWAP2 POP POP JUMP JUMPDEST PUSH1 0x0 PUSH1 0x20 DUP3 ADD SWAP1 POP PUSH2 0x8BC PUSH1 0x0 DUP4 ADD DUP5 PUSH2 0x7DB JUMP JUMPDEST SWAP3 SWAP2 POP POP JUMP JUMPDEST PUSH1 0x0 PUSH1 0x20 DUP3 ADD SWAP1 POP PUSH2 0x8D7 PUSH1 0x0 DUP4 ADD DUP5 PUSH2 0x7EA JUMP JUMPDEST SWAP3 SWAP2 POP POP JUMP JUMPDEST PUSH1 0x0 PUSH1 0x20 DUP3 ADD SWAP1 POP DUP2 DUP2 SUB PUSH1 0x0 DUP4 ADD MSTORE PUSH2 0x8F6 DUP2 PUSH2 0x7F9 JUMP JUMPDEST SWAP1 POP SWAP2 SWAP1 POP JUMP JUMPDEST PUSH1 0x0 PUSH1 0x20 DUP3 ADD SWAP1 POP DUP2 DUP2 SUB PUSH1 0x0 DUP4 ADD MSTORE PUSH2 0x916 DUP2 PUSH2 0x81C JUMP JUMPDEST SWAP1 POP SWAP2 SWAP1 POP JUMP JUMPDEST PUSH1 0x0 PUSH1 0x20 DUP3 ADD SWAP1 POP DUP2 DUP2 SUB PUSH1 0x0 DUP4 ADD MSTORE PUSH2 0x936 DUP2 PUSH2 0x83F JUMP JUMPDEST SWAP1 POP SWAP2 SWAP1 POP JUMP JUMPDEST PUSH1 0x0 PUSH1 0x20 DUP3 ADD SWAP1 POP PUSH2 0x952 PUSH1 0x0 DUP4 ADD DUP5 PUSH2 0x862 JUMP JUMPDEST SWAP3 SWAP2 POP POP JUMP JUMPDEST PUSH1 0x0 DUP3 DUP3 MSTORE PUSH1 0x20 DUP3 ADD SWAP1 POP SWAP3 SWAP2 POP POP JUMP JUMPDEST PUSH1 0x0 PUSH2 0x974 DUP3 PUSH2 0x9A6 JUMP JUMPDEST SWAP1 POP SWAP2 SWAP1 POP JUMP JUMPDEST PUSH1 0x0 PUSH2 0x986 DUP3 PUSH2 0x9A6 JUMP JUMPDEST SWAP1 POP SWAP2 SWAP1 POP JUMP JUMPDEST PUSH1 0x0 DUP2 ISZERO ISZERO SWAP1 POP SWAP2 SWAP1 POP JUMP JUMPDEST PUSH1 0x0 DUP2 PUSH1 0x0 SIGNEXTEND SWAP1 POP SWAP2 SWAP1 POP JUMP JUMPDEST PUSH1 0x0 PUSH20 0xFFFFFFFFFFFFFFFFFFFFFFFFFFFFFFFFFFFFFFFF DUP3 AND SWAP1 POP SWAP2 SWAP1 POP JUMP JUMPDEST PUSH1 0x0 DUP2 SWAP1 POP SWAP2 SWAP1 POP JUMP JUMPDEST PUSH1 0x0 DUP1 REVERT JUMPDEST PUSH32 0x636865636B7320666F72206F776E6572206F6620636F6E747261637400000000 PUSH1 0x0 DUP3 ADD MSTORE POP JUMP JUMPDEST PUSH32 0x6E6F20656874657220696E20636F6E7472616374000000000000000000000000 PUSH1 0x0 DUP3 ADD MSTORE POP JUMP JUMPDEST PUSH32 0x6F6E6C792030206F72203120617320706172616D6574657220666F7220746865 PUSH1 0x0 DUP3 ADD MSTORE PUSH32 0x207365744C65642066756E6374696F6E00000000000000000000000000000000 PUSH1 0x20 DUP3 ADD MSTORE POP JUMP JUMPDEST PUSH2 0xA7F DUP2 PUSH2 0x97B JUMP JUMPDEST DUP2 EQ PUSH2 0xA8A JUMPI PUSH1 0x0 DUP1 REVERT JUMPDEST POP JUMP JUMPDEST PUSH2 0xA96 DUP2 PUSH2 0x999 JUMP JUMPDEST DUP2 EQ PUSH2 0xAA1 JUMPI PUSH1 0x0 DUP1 REVERT JUMPDEST POP JUMP INVALID LOG2 PUSH5 0x6970667358 0x22 SLT KECCAK256 0xDB BLOCKHASH CREATE PUSH12 0xFAAD9AA9F1E511161245D66F 0xAF 0xDC MSTORE8 SDIV 0xEF 0x22 DUP9 PUSH8 0x3474ED0C4B9AA27E PUSH5 0x736F6C6343 STOP ADDMOD SMOD STOP CALLER "
				},
				"gasEstimates": {
					"creation": {
						"codeDepositCost": "555600",
						"executionCost": "24853",
						"totalCost": "580453"
					},
					"external": {
						"SendPaymentToContract()": "infinite",
						"contractBalance()": "2580",
						"getBalance()": "5102",
						"getBalanceOwner()": "5080",
						"getCurrentAddress()": "495",
						"getOwner()": "2566",
						"kill()": "32114",
						"ledStatus()": "2525",
						"readLed()": "2621",
						"retrieveEther()": "infinite",
						"setLed(int8)": "infinite",
						"transferOwnerShip(address)": "26911"
					}
				},
				"methodIdentifiers": {
					"SendPaymentToContract()": "5ca26ee1",
					"contractBalance()": "8b7afe2e",
					"getBalance()": "12065fe0",
					"getBalanceOwner()": "08b6ff56",
					"getCurrentAddress()": "e717ea61",
					"getOwner()": "893d20e8",
					"kill()": "41c0e1b5",
					"ledStatus()": "7291d59b",
					"readLed()": "a5480959",
					"retrieveEther()": "224ee04f",
					"setLed(int8)": "61df9af9",
					"transferOwnerShip(address)": "8863dd1a"
				}
			},
			"storageLayout": {
				"storage": [
					{
						"astId": 31,
						"contract": "contracts/led_contract.sol:led_contract",
						"label": "owner",
						"offset": 0,
						"slot": "0",
						"type": "t_address_payable"
					},
					{
						"astId": 33,
						"contract": "contracts/led_contract.sol:led_contract",
						"label": "ledStatus",
						"offset": 20,
						"slot": "0",
						"type": "t_int8"
					},
					{
						"astId": 35,
						"contract": "contracts/led_contract.sol:led_contract",
						"label": "contractBalance",
						"offset": 0,
						"slot": "1",
						"type": "t_address_payable"
					}
				],
				"types": {
					"t_address_payable": {
						"encoding": "inplace",
						"label": "address payable",
						"numberOfBytes": "20"
					},
					"t_int8": {
						"encoding": "inplace",
						"label": "int8",
						"numberOfBytes": "1"
					}
				}
			},
			"userdoc": {
				"kind": "user",
				"methods": {
					"SendPaymentToContract()": {
						"notice": "function testSend() public payable { owner.transfer(msg.value); } function test2Send() public payable { contractBalance.transfer(msg.value); }"
					}
				},
				"version": 1
			}
		}
	}
}