{
	"contracts/led_contract.sol": {
		"led_contract": {
			"abi": [
				{
					"inputs": [],
					"stateMutability": "nonpayable",
					"type": "constructor"
				},
				{
					"inputs": [],
					"name": "contractAddress",
					"outputs": [
						{
							"internalType": "address",
							"name": "",
							"type": "address"
						}
					],
					"stateMutability": "view",
					"type": "function"
				},
				{
					"inputs": [],
					"name": "getBalanceOwner",
					"outputs": [
						{
							"internalType": "uint256",
							"name": "",
							"type": "uint256"
						}
					],
					"stateMutability": "view",
					"type": "function"
				},
				{
					"inputs": [],
					"name": "getCurrentAddress",
					"outputs": [
						{
							"internalType": "address payable",
							"name": "",
							"type": "address"
						}
					],
					"stateMutability": "view",
					"type": "function"
				},
				{
					"inputs": [],
					"name": "getOwner",
					"outputs": [
						{
							"internalType": "address",
							"name": "",
							"type": "address"
						}
					],
					"stateMutability": "view",
					"type": "function"
				},
				{
					"inputs": [],
					"name": "kill",
					"outputs": [],
					"stateMutability": "nonpayable",
					"type": "function"
				},
				{
					"inputs": [],
					"name": "ledStatus",
					"outputs": [
						{
							"internalType": "int8",
							"name": "",
							"type": "int8"
						}
					],
					"stateMutability": "view",
					"type": "function"
				},
				{
					"inputs": [],
					"name": "readLed",
					"outputs": [
						{
							"internalType": "int8",
							"name": "",
							"type": "int8"
						}
					],
					"stateMutability": "view",
					"type": "function"
				},
				{
					"inputs": [],
					"name": "retrieveEther",
					"outputs": [],
					"stateMutability": "nonpayable",
					"type": "function"
				},
				{
					"inputs": [
						{
							"internalType": "int8",
							"name": "newOn",
							"type": "int8"
						}
					],
					"name": "setLed",
					"outputs": [],
					"stateMutability": "payable",
					"type": "function"
				},
				{
					"inputs": [
						{
							"internalType": "address payable",
							"name": "_newOwner",
							"type": "address"
						}
					],
					"name": "transferOwnerShip",
					"outputs": [],
					"stateMutability": "nonpayable",
					"type": "function"
				}
			],
			"devdoc": {
				"custom:dev-run-script": "./scripts/deploy_with_ethers.ts",
				"details": "Interact with Smart Contract",
				"kind": "dev",
				"methods": {
					"kill()": {
						"details": "to kill the contract from the blockchain"
					},
					"readLed()": {
						"details": "Return value ",
						"returns": {
							"_0": "'ledStatus' status of the led 1 is on 0 is off"
						}
					},
					"retrieveEther()": {
						"details": "Returns the ether value "
					},
					"setLed(int8)": {
						"details": "Store value in Blockchain",
						"params": {
							"newOn": "1 - toturn led on  0 - turn led off  "
						}
					},
					"transferOwnerShip(address)": {
						"details": "transfers the ownership of the contract "
					}
				},
				"title": "IoT-Smart Contract",
				"version": 1
			},
			"evm": {
				"assembly": "    /* \"contracts/led_contract.sol\":232:1980  contract led_contract is led_interface {... */\n  mstore(0x40, 0x80)\n    /* \"contracts/led_contract.sol\":377:475  constructor(){... */\n  callvalue\n  dup1\n  iszero\n  tag_1\n  jumpi\n  0x00\n  dup1\n  revert\ntag_1:\n  pop\n    /* \"contracts/led_contract.sol\":416:426  msg.sender */\n  caller\n    /* \"contracts/led_contract.sol\":400:405  owner */\n  0x00\n  dup1\n    /* \"contracts/led_contract.sol\":400:427  owner = payable(msg.sender) */\n  0x0100\n  exp\n  dup2\n  sload\n  dup2\n  0xffffffffffffffffffffffffffffffffffffffff\n  mul\n  not\n  and\n  swap1\n  dup4\n  0xffffffffffffffffffffffffffffffffffffffff\n  and\n  mul\n  or\n  swap1\n  sstore\n  pop\n    /* \"contracts/led_contract.sol\":463:467  this */\n  address\n    /* \"contracts/led_contract.sol\":437:452  contractAddress */\n  0x01\n  0x00\n    /* \"contracts/led_contract.sol\":437:468  contractAddress = address(this) */\n  0x0100\n  exp\n  dup2\n  sload\n  dup2\n  0xffffffffffffffffffffffffffffffffffffffff\n  mul\n  not\n  and\n  swap1\n  dup4\n  0xffffffffffffffffffffffffffffffffffffffff\n  and\n  mul\n  or\n  swap1\n  sstore\n  pop\n    /* \"contracts/led_contract.sol\":232:1980  contract led_contract is led_interface {... */\n  dataSize(sub_0)\n  dup1\n  dataOffset(sub_0)\n  0x00\n  codecopy\n  0x00\n  return\nstop\n\nsub_0: assembly {\n        /* \"contracts/led_contract.sol\":232:1980  contract led_contract is led_interface {... */\n      mstore(0x40, 0x80)\n      jumpi(tag_1, lt(calldatasize, 0x04))\n      shr(0xe0, calldataload(0x00))\n      dup1\n      0x8863dd1a\n      gt\n      tag_12\n      jumpi\n      dup1\n      0x8863dd1a\n      eq\n      tag_7\n      jumpi\n      dup1\n      0x893d20e8\n      eq\n      tag_8\n      jumpi\n      dup1\n      0xa5480959\n      eq\n      tag_9\n      jumpi\n      dup1\n      0xe717ea61\n      eq\n      tag_10\n      jumpi\n      dup1\n      0xf6b4dfb4\n      eq\n      tag_11\n      jumpi\n      jump(tag_1)\n    tag_12:\n      dup1\n      0x08b6ff56\n      eq\n      tag_2\n      jumpi\n      dup1\n      0x224ee04f\n      eq\n      tag_3\n      jumpi\n      dup1\n      0x41c0e1b5\n      eq\n      tag_4\n      jumpi\n      dup1\n      0x61df9af9\n      eq\n      tag_5\n      jumpi\n      dup1\n      0x7291d59b\n      eq\n      tag_6\n      jumpi\n    tag_1:\n      0x00\n      dup1\n      revert\n        /* \"contracts/led_contract.sol\":1529:1618  function getBalanceOwner() public view returns(uint){... */\n    tag_2:\n      callvalue\n      dup1\n      iszero\n      tag_13\n      jumpi\n      0x00\n      dup1\n      revert\n    tag_13:\n      pop\n      tag_14\n      tag_15\n      jump\t// in\n    tag_14:\n      mload(0x40)\n      tag_16\n      swap2\n      swap1\n      tag_17\n      jump\t// in\n    tag_16:\n      mload(0x40)\n      dup1\n      swap2\n      sub\n      swap1\n      return\n        /* \"contracts/led_contract.sol\":1222:1280  function retrieveEther() public override onlyOwner{... */\n    tag_3:\n      callvalue\n      dup1\n      iszero\n      tag_18\n      jumpi\n      0x00\n      dup1\n      revert\n    tag_18:\n      pop\n      tag_19\n      tag_20\n      jump\t// in\n    tag_19:\n      stop\n        /* \"contracts/led_contract.sol\":1360:1437  function kill() public override onlyOwner{... */\n    tag_4:\n      callvalue\n      dup1\n      iszero\n      tag_21\n      jumpi\n      0x00\n      dup1\n      revert\n    tag_21:\n      pop\n      tag_22\n      tag_23\n      jump\t// in\n    tag_22:\n      stop\n        /* \"contracts/led_contract.sol\":593:846  function setLed(int8 newOn) public override payable {... */\n    tag_5:\n      tag_24\n      0x04\n      dup1\n      calldatasize\n      sub\n      dup2\n      add\n      swap1\n      tag_25\n      swap2\n      swap1\n      tag_26\n      jump\t// in\n    tag_25:\n      tag_27\n      jump\t// in\n    tag_24:\n      stop\n        /* \"contracts/led_contract.sol\":313:334  int8 public ledStatus */\n    tag_6:\n      callvalue\n      dup1\n      iszero\n      tag_28\n      jumpi\n      0x00\n      dup1\n      revert\n    tag_28:\n      pop\n      tag_29\n      tag_30\n      jump\t// in\n    tag_29:\n      mload(0x40)\n      tag_31\n      swap2\n      swap1\n      tag_32\n      jump\t// in\n    tag_31:\n      mload(0x40)\n      dup1\n      swap2\n      sub\n      swap1\n      return\n        /* \"contracts/led_contract.sol\":1874:1978  function transferOwnerShip(address payable _newOwner) public onlyOwner{... */\n    tag_7:\n      callvalue\n      dup1\n      iszero\n      tag_33\n      jumpi\n      0x00\n      dup1\n      revert\n    tag_33:\n      pop\n      tag_34\n      0x04\n      dup1\n      calldatasize\n      sub\n      dup2\n      add\n      swap1\n      tag_35\n      swap2\n      swap1\n      tag_36\n      jump\t// in\n    tag_35:\n      tag_37\n      jump\t// in\n    tag_34:\n      stop\n        /* \"contracts/led_contract.sol\":1443:1522  function getOwner() public view returns (address) {... */\n    tag_8:\n      callvalue\n      dup1\n      iszero\n      tag_38\n      jumpi\n      0x00\n      dup1\n      revert\n    tag_38:\n      pop\n      tag_39\n      tag_40\n      jump\t// in\n    tag_39:\n      mload(0x40)\n      tag_41\n      swap2\n      swap1\n      tag_42\n      jump\t// in\n    tag_41:\n      mload(0x40)\n      dup1\n      swap2\n      sub\n      swap1\n      return\n        /* \"contracts/led_contract.sol\":1076:1163  function readLed() public view override returns (int8){... */\n    tag_9:\n      callvalue\n      dup1\n      iszero\n      tag_43\n      jumpi\n      0x00\n      dup1\n      revert\n    tag_43:\n      pop\n      tag_44\n      tag_45\n      jump\t// in\n    tag_44:\n      mload(0x40)\n      tag_46\n      swap2\n      swap1\n      tag_32\n      jump\t// in\n    tag_46:\n      mload(0x40)\n      dup1\n      swap2\n      sub\n      swap1\n      return\n        /* \"contracts/led_contract.sol\":852:966  function getCurrentAddress() public view returns (address payable){... */\n    tag_10:\n      callvalue\n      dup1\n      iszero\n      tag_47\n      jumpi\n      0x00\n      dup1\n      revert\n    tag_47:\n      pop\n      tag_48\n      tag_49\n      jump\t// in\n    tag_48:\n      mload(0x40)\n      tag_50\n      swap2\n      swap1\n      tag_51\n      jump\t// in\n    tag_50:\n      mload(0x40)\n      dup1\n      swap2\n      sub\n      swap1\n      return\n        /* \"contracts/led_contract.sol\":340:370  address public contractAddress */\n    tag_11:\n      callvalue\n      dup1\n      iszero\n      tag_52\n      jumpi\n      0x00\n      dup1\n      revert\n    tag_52:\n      pop\n      tag_53\n      tag_54\n      jump\t// in\n    tag_53:\n      mload(0x40)\n      tag_55\n      swap2\n      swap1\n      tag_42\n      jump\t// in\n    tag_55:\n      mload(0x40)\n      dup1\n      swap2\n      sub\n      swap1\n      return\n        /* \"contracts/led_contract.sol\":1529:1618  function getBalanceOwner() public view returns(uint){... */\n    tag_15:\n        /* \"contracts/led_contract.sol\":1576:1580  uint */\n      0x00\n        /* \"contracts/led_contract.sol\":1598:1603  owner */\n      dup1\n      0x00\n      swap1\n      sload\n      swap1\n      0x0100\n      exp\n      swap1\n      div\n      0xffffffffffffffffffffffffffffffffffffffff\n      and\n        /* \"contracts/led_contract.sol\":1598:1611  owner.balance */\n      0xffffffffffffffffffffffffffffffffffffffff\n      and\n      balance\n        /* \"contracts/led_contract.sol\":1591:1611  return owner.balance */\n      swap1\n      pop\n        /* \"contracts/led_contract.sol\":1529:1618  function getBalanceOwner() public view returns(uint){... */\n      swap1\n      jump\t// out\n        /* \"contracts/led_contract.sol\":1222:1280  function retrieveEther() public override onlyOwner{... */\n    tag_20:\n        /* \"contracts/led_contract.sol\":1743:1748  owner */\n      0x00\n      dup1\n      sload\n      swap1\n      0x0100\n      exp\n      swap1\n      div\n      0xffffffffffffffffffffffffffffffffffffffff\n      and\n        /* \"contracts/led_contract.sol\":1729:1748  msg.sender == owner */\n      0xffffffffffffffffffffffffffffffffffffffff\n      and\n        /* \"contracts/led_contract.sol\":1729:1739  msg.sender */\n      caller\n        /* \"contracts/led_contract.sol\":1729:1748  msg.sender == owner */\n      0xffffffffffffffffffffffffffffffffffffffff\n      and\n      eq\n        /* \"contracts/led_contract.sol\":1721:1781  require(msg.sender == owner, \"checks for owner of contract\") */\n      tag_58\n      jumpi\n      mload(0x40)\n      0x08c379a000000000000000000000000000000000000000000000000000000000\n      dup2\n      mstore\n      0x04\n      add\n      tag_59\n      swap1\n      tag_60\n      jump\t// in\n    tag_59:\n      mload(0x40)\n      dup1\n      swap2\n      sub\n      swap1\n      revert\n    tag_58:\n        /* \"contracts/led_contract.sol\":1222:1280  function retrieveEther() public override onlyOwner{... */\n      jump\t// out\n        /* \"contracts/led_contract.sol\":1360:1437  function kill() public override onlyOwner{... */\n    tag_23:\n        /* \"contracts/led_contract.sol\":1743:1748  owner */\n      0x00\n      dup1\n      sload\n      swap1\n      0x0100\n      exp\n      swap1\n      div\n      0xffffffffffffffffffffffffffffffffffffffff\n      and\n        /* \"contracts/led_contract.sol\":1729:1748  msg.sender == owner */\n      0xffffffffffffffffffffffffffffffffffffffff\n      and\n        /* \"contracts/led_contract.sol\":1729:1739  msg.sender */\n      caller\n        /* \"contracts/led_contract.sol\":1729:1748  msg.sender == owner */\n      0xffffffffffffffffffffffffffffffffffffffff\n      and\n      eq\n        /* \"contracts/led_contract.sol\":1721:1781  require(msg.sender == owner, \"checks for owner of contract\") */\n      tag_63\n      jumpi\n      mload(0x40)\n      0x08c379a000000000000000000000000000000000000000000000000000000000\n      dup2\n      mstore\n      0x04\n      add\n      tag_64\n      swap1\n      tag_60\n      jump\t// in\n    tag_64:\n      mload(0x40)\n      dup1\n      swap2\n      sub\n      swap1\n      revert\n    tag_63:\n        /* \"contracts/led_contract.sol\":1424:1429  owner */\n      0x00\n      dup1\n      sload\n      swap1\n      0x0100\n      exp\n      swap1\n      div\n      0xffffffffffffffffffffffffffffffffffffffff\n      and\n        /* \"contracts/led_contract.sol\":1411:1430  selfdestruct(owner) */\n      0xffffffffffffffffffffffffffffffffffffffff\n      and\n      selfdestruct\n        /* \"contracts/led_contract.sol\":593:846  function setLed(int8 newOn) public override payable {... */\n    tag_27:\n        /* \"contracts/led_contract.sol\":673:674  1 */\n      0x01\n        /* \"contracts/led_contract.sol\":664:669  newOn */\n      dup2\n        /* \"contracts/led_contract.sol\":664:674  newOn == 1 */\n      0x00\n      signextend\n      eq\n        /* \"contracts/led_contract.sol\":664:687  newOn == 1 || newOn ==0 */\n      dup1\n      tag_67\n      jumpi\n      pop\n        /* \"contracts/led_contract.sol\":686:687  0 */\n      0x00\n        /* \"contracts/led_contract.sol\":678:683  newOn */\n      dup2\n        /* \"contracts/led_contract.sol\":678:687  newOn ==0 */\n      0x00\n      signextend\n      eq\n        /* \"contracts/led_contract.sol\":664:687  newOn == 1 || newOn ==0 */\n    tag_67:\n        /* \"contracts/led_contract.sol\":655:740  require( newOn == 1 || newOn ==0, \"only 0 or 1 as parameter for the setLed function\") */\n      tag_68\n      jumpi\n      mload(0x40)\n      0x08c379a000000000000000000000000000000000000000000000000000000000\n      dup2\n      mstore\n      0x04\n      add\n      tag_69\n      swap1\n      tag_70\n      jump\t// in\n    tag_69:\n      mload(0x40)\n      dup1\n      swap2\n      sub\n      swap1\n      revert\n    tag_68:\n        /* \"contracts/led_contract.sol\":762:767  newOn */\n      dup1\n        /* \"contracts/led_contract.sol\":750:759  ledStatus */\n      0x00\n      0x14\n        /* \"contracts/led_contract.sol\":750:767  ledStatus = newOn */\n      0x0100\n      exp\n      dup2\n      sload\n      dup2\n      0xff\n      mul\n      not\n      and\n      swap1\n      dup4\n      0x00\n      signextend\n      0xff\n      and\n      mul\n      or\n      swap1\n      sstore\n      pop\n        /* \"contracts/led_contract.sol\":814:819  owner */\n      0x00\n      dup1\n      sload\n      swap1\n      0x0100\n      exp\n      swap1\n      div\n      0xffffffffffffffffffffffffffffffffffffffff\n      and\n        /* \"contracts/led_contract.sol\":814:828  owner.transfer */\n      0xffffffffffffffffffffffffffffffffffffffff\n      and\n        /* \"contracts/led_contract.sol\":814:839  owner.transfer(msg.value) */\n      0x08fc\n        /* \"contracts/led_contract.sol\":829:838  msg.value */\n      callvalue\n        /* \"contracts/led_contract.sol\":814:839  owner.transfer(msg.value) */\n      swap1\n      dup2\n      iszero\n      mul\n      swap1\n      mload(0x40)\n      0x00\n      mload(0x40)\n      dup1\n      dup4\n      sub\n      dup2\n      dup6\n      dup9\n      dup9\n      call\n      swap4\n      pop\n      pop\n      pop\n      pop\n      iszero\n      dup1\n      iszero\n      tag_72\n      jumpi\n      returndatasize\n      0x00\n      dup1\n      returndatacopy\n      revert(0x00, returndatasize)\n    tag_72:\n      pop\n        /* \"contracts/led_contract.sol\":593:846  function setLed(int8 newOn) public override payable {... */\n      pop\n      jump\t// out\n        /* \"contracts/led_contract.sol\":313:334  int8 public ledStatus */\n    tag_30:\n      0x00\n      0x14\n      swap1\n      sload\n      swap1\n      0x0100\n      exp\n      swap1\n      div\n      0x00\n      signextend\n      dup2\n      jump\t// out\n        /* \"contracts/led_contract.sol\":1874:1978  function transferOwnerShip(address payable _newOwner) public onlyOwner{... */\n    tag_37:\n        /* \"contracts/led_contract.sol\":1743:1748  owner */\n      0x00\n      dup1\n      sload\n      swap1\n      0x0100\n      exp\n      swap1\n      div\n      0xffffffffffffffffffffffffffffffffffffffff\n      and\n        /* \"contracts/led_contract.sol\":1729:1748  msg.sender == owner */\n      0xffffffffffffffffffffffffffffffffffffffff\n      and\n        /* \"contracts/led_contract.sol\":1729:1739  msg.sender */\n      caller\n        /* \"contracts/led_contract.sol\":1729:1748  msg.sender == owner */\n      0xffffffffffffffffffffffffffffffffffffffff\n      and\n      eq\n        /* \"contracts/led_contract.sol\":1721:1781  require(msg.sender == owner, \"checks for owner of contract\") */\n      tag_74\n      jumpi\n      mload(0x40)\n      0x08c379a000000000000000000000000000000000000000000000000000000000\n      dup2\n      mstore\n      0x04\n      add\n      tag_75\n      swap1\n      tag_60\n      jump\t// in\n    tag_75:\n      mload(0x40)\n      dup1\n      swap2\n      sub\n      swap1\n      revert\n    tag_74:\n        /* \"contracts/led_contract.sol\":1962:1971  _newOwner */\n      dup1\n        /* \"contracts/led_contract.sol\":1954:1959  owner */\n      0x00\n      dup1\n        /* \"contracts/led_contract.sol\":1954:1971  owner = _newOwner */\n      0x0100\n      exp\n      dup2\n      sload\n      dup2\n      0xffffffffffffffffffffffffffffffffffffffff\n      mul\n      not\n      and\n      swap1\n      dup4\n      0xffffffffffffffffffffffffffffffffffffffff\n      and\n      mul\n      or\n      swap1\n      sstore\n      pop\n        /* \"contracts/led_contract.sol\":1874:1978  function transferOwnerShip(address payable _newOwner) public onlyOwner{... */\n      pop\n      jump\t// out\n        /* \"contracts/led_contract.sol\":1443:1522  function getOwner() public view returns (address) {... */\n    tag_40:\n        /* \"contracts/led_contract.sol\":1484:1491  address */\n      0x00\n        /* \"contracts/led_contract.sol\":1510:1515  owner */\n      dup1\n      0x00\n      swap1\n      sload\n      swap1\n      0x0100\n      exp\n      swap1\n      div\n      0xffffffffffffffffffffffffffffffffffffffff\n      and\n        /* \"contracts/led_contract.sol\":1503:1515  return owner */\n      swap1\n      pop\n        /* \"contracts/led_contract.sol\":1443:1522  function getOwner() public view returns (address) {... */\n      swap1\n      jump\t// out\n        /* \"contracts/led_contract.sol\":1076:1163  function readLed() public view override returns (int8){... */\n    tag_45:\n        /* \"contracts/led_contract.sol\":1125:1129  int8 */\n      0x00\n        /* \"contracts/led_contract.sol\":1147:1156  ledStatus */\n      dup1\n      0x14\n      swap1\n      sload\n      swap1\n      0x0100\n      exp\n      swap1\n      div\n      0x00\n      signextend\n        /* \"contracts/led_contract.sol\":1140:1156  return ledStatus */\n      swap1\n      pop\n        /* \"contracts/led_contract.sol\":1076:1163  function readLed() public view override returns (int8){... */\n      swap1\n      jump\t// out\n        /* \"contracts/led_contract.sol\":852:966  function getCurrentAddress() public view returns (address payable){... */\n    tag_49:\n        /* \"contracts/led_contract.sol\":902:917  address payable */\n      0x00\n        /* \"contracts/led_contract.sol\":953:957  this */\n      address\n        /* \"contracts/led_contract.sol\":930:959  return payable(address(this)) */\n      swap1\n      pop\n        /* \"contracts/led_contract.sol\":852:966  function getCurrentAddress() public view returns (address payable){... */\n      swap1\n      jump\t// out\n        /* \"contracts/led_contract.sol\":340:370  address public contractAddress */\n    tag_54:\n      0x01\n      0x00\n      swap1\n      sload\n      swap1\n      0x0100\n      exp\n      swap1\n      div\n      0xffffffffffffffffffffffffffffffffffffffff\n      and\n      dup2\n      jump\t// out\n        /* \"#utility.yul\":7:162   */\n    tag_81:\n        /* \"#utility.yul\":61:66   */\n      0x00\n        /* \"#utility.yul\":99:105   */\n      dup2\n        /* \"#utility.yul\":86:106   */\n      calldataload\n        /* \"#utility.yul\":77:106   */\n      swap1\n      pop\n        /* \"#utility.yul\":115:156   */\n      tag_83\n        /* \"#utility.yul\":150:155   */\n      dup2\n        /* \"#utility.yul\":115:156   */\n      tag_84\n      jump\t// in\n    tag_83:\n        /* \"#utility.yul\":7:162   */\n      swap3\n      swap2\n      pop\n      pop\n      jump\t// out\n        /* \"#utility.yul\":168:301   */\n    tag_85:\n        /* \"#utility.yul\":211:216   */\n      0x00\n        /* \"#utility.yul\":249:255   */\n      dup2\n        /* \"#utility.yul\":236:256   */\n      calldataload\n        /* \"#utility.yul\":227:256   */\n      swap1\n      pop\n        /* \"#utility.yul\":265:295   */\n      tag_87\n        /* \"#utility.yul\":289:294   */\n      dup2\n        /* \"#utility.yul\":265:295   */\n      tag_88\n      jump\t// in\n    tag_87:\n        /* \"#utility.yul\":168:301   */\n      swap3\n      swap2\n      pop\n      pop\n      jump\t// out\n        /* \"#utility.yul\":307:652   */\n    tag_36:\n        /* \"#utility.yul\":374:380   */\n      0x00\n        /* \"#utility.yul\":423:425   */\n      0x20\n        /* \"#utility.yul\":411:420   */\n      dup3\n        /* \"#utility.yul\":402:409   */\n      dup5\n        /* \"#utility.yul\":398:421   */\n      sub\n        /* \"#utility.yul\":394:426   */\n      slt\n        /* \"#utility.yul\":391:510   */\n      iszero\n      tag_90\n      jumpi\n        /* \"#utility.yul\":429:508   */\n      tag_91\n      tag_92\n      jump\t// in\n    tag_91:\n        /* \"#utility.yul\":391:510   */\n    tag_90:\n        /* \"#utility.yul\":549:550   */\n      0x00\n        /* \"#utility.yul\":574:635   */\n      tag_93\n        /* \"#utility.yul\":627:634   */\n      dup5\n        /* \"#utility.yul\":618:624   */\n      dup3\n        /* \"#utility.yul\":607:616   */\n      dup6\n        /* \"#utility.yul\":603:625   */\n      add\n        /* \"#utility.yul\":574:635   */\n      tag_81\n      jump\t// in\n    tag_93:\n        /* \"#utility.yul\":564:635   */\n      swap2\n      pop\n        /* \"#utility.yul\":520:645   */\n      pop\n        /* \"#utility.yul\":307:652   */\n      swap3\n      swap2\n      pop\n      pop\n      jump\t// out\n        /* \"#utility.yul\":658:981   */\n    tag_26:\n        /* \"#utility.yul\":714:720   */\n      0x00\n        /* \"#utility.yul\":763:765   */\n      0x20\n        /* \"#utility.yul\":751:760   */\n      dup3\n        /* \"#utility.yul\":742:749   */\n      dup5\n        /* \"#utility.yul\":738:761   */\n      sub\n        /* \"#utility.yul\":734:766   */\n      slt\n        /* \"#utility.yul\":731:850   */\n      iszero\n      tag_95\n      jumpi\n        /* \"#utility.yul\":769:848   */\n      tag_96\n      tag_92\n      jump\t// in\n    tag_96:\n        /* \"#utility.yul\":731:850   */\n    tag_95:\n        /* \"#utility.yul\":889:890   */\n      0x00\n        /* \"#utility.yul\":914:964   */\n      tag_97\n        /* \"#utility.yul\":956:963   */\n      dup5\n        /* \"#utility.yul\":947:953   */\n      dup3\n        /* \"#utility.yul\":936:945   */\n      dup6\n        /* \"#utility.yul\":932:954   */\n      add\n        /* \"#utility.yul\":914:964   */\n      tag_85\n      jump\t// in\n    tag_97:\n        /* \"#utility.yul\":904:964   */\n      swap2\n      pop\n        /* \"#utility.yul\":860:974   */\n      pop\n        /* \"#utility.yul\":658:981   */\n      swap3\n      swap2\n      pop\n      pop\n      jump\t// out\n        /* \"#utility.yul\":987:1129   */\n    tag_98:\n        /* \"#utility.yul\":1090:1122   */\n      tag_100\n        /* \"#utility.yul\":1116:1121   */\n      dup2\n        /* \"#utility.yul\":1090:1122   */\n      tag_101\n      jump\t// in\n    tag_100:\n        /* \"#utility.yul\":1085:1088   */\n      dup3\n        /* \"#utility.yul\":1078:1123   */\n      mstore\n        /* \"#utility.yul\":987:1129   */\n      pop\n      pop\n      jump\t// out\n        /* \"#utility.yul\":1135:1253   */\n    tag_102:\n        /* \"#utility.yul\":1222:1246   */\n      tag_104\n        /* \"#utility.yul\":1240:1245   */\n      dup2\n        /* \"#utility.yul\":1222:1246   */\n      tag_105\n      jump\t// in\n    tag_104:\n        /* \"#utility.yul\":1217:1220   */\n      dup3\n        /* \"#utility.yul\":1210:1247   */\n      mstore\n        /* \"#utility.yul\":1135:1253   */\n      pop\n      pop\n      jump\t// out\n        /* \"#utility.yul\":1259:1368   */\n    tag_106:\n        /* \"#utility.yul\":1340:1361   */\n      tag_108\n        /* \"#utility.yul\":1355:1360   */\n      dup2\n        /* \"#utility.yul\":1340:1361   */\n      tag_109\n      jump\t// in\n    tag_108:\n        /* \"#utility.yul\":1335:1338   */\n      dup3\n        /* \"#utility.yul\":1328:1362   */\n      mstore\n        /* \"#utility.yul\":1259:1368   */\n      pop\n      pop\n      jump\t// out\n        /* \"#utility.yul\":1374:1740   */\n    tag_110:\n        /* \"#utility.yul\":1516:1519   */\n      0x00\n        /* \"#utility.yul\":1537:1604   */\n      tag_112\n        /* \"#utility.yul\":1601:1603   */\n      0x1c\n        /* \"#utility.yul\":1596:1599   */\n      dup4\n        /* \"#utility.yul\":1537:1604   */\n      tag_113\n      jump\t// in\n    tag_112:\n        /* \"#utility.yul\":1530:1604   */\n      swap2\n      pop\n        /* \"#utility.yul\":1613:1706   */\n      tag_114\n        /* \"#utility.yul\":1702:1705   */\n      dup3\n        /* \"#utility.yul\":1613:1706   */\n      tag_115\n      jump\t// in\n    tag_114:\n        /* \"#utility.yul\":1731:1733   */\n      0x20\n        /* \"#utility.yul\":1726:1729   */\n      dup3\n        /* \"#utility.yul\":1722:1734   */\n      add\n        /* \"#utility.yul\":1715:1734   */\n      swap1\n      pop\n        /* \"#utility.yul\":1374:1740   */\n      swap2\n      swap1\n      pop\n      jump\t// out\n        /* \"#utility.yul\":1746:2112   */\n    tag_116:\n        /* \"#utility.yul\":1888:1891   */\n      0x00\n        /* \"#utility.yul\":1909:1976   */\n      tag_118\n        /* \"#utility.yul\":1973:1975   */\n      0x30\n        /* \"#utility.yul\":1968:1971   */\n      dup4\n        /* \"#utility.yul\":1909:1976   */\n      tag_113\n      jump\t// in\n    tag_118:\n        /* \"#utility.yul\":1902:1976   */\n      swap2\n      pop\n        /* \"#utility.yul\":1985:2078   */\n      tag_119\n        /* \"#utility.yul\":2074:2077   */\n      dup3\n        /* \"#utility.yul\":1985:2078   */\n      tag_120\n      jump\t// in\n    tag_119:\n        /* \"#utility.yul\":2103:2105   */\n      0x40\n        /* \"#utility.yul\":2098:2101   */\n      dup3\n        /* \"#utility.yul\":2094:2106   */\n      add\n        /* \"#utility.yul\":2087:2106   */\n      swap1\n      pop\n        /* \"#utility.yul\":1746:2112   */\n      swap2\n      swap1\n      pop\n      jump\t// out\n        /* \"#utility.yul\":2118:2236   */\n    tag_121:\n        /* \"#utility.yul\":2205:2229   */\n      tag_123\n        /* \"#utility.yul\":2223:2228   */\n      dup2\n        /* \"#utility.yul\":2205:2229   */\n      tag_124\n      jump\t// in\n    tag_123:\n        /* \"#utility.yul\":2200:2203   */\n      dup3\n        /* \"#utility.yul\":2193:2230   */\n      mstore\n        /* \"#utility.yul\":2118:2236   */\n      pop\n      pop\n      jump\t// out\n        /* \"#utility.yul\":2242:2464   */\n    tag_42:\n        /* \"#utility.yul\":2335:2339   */\n      0x00\n        /* \"#utility.yul\":2373:2375   */\n      0x20\n        /* \"#utility.yul\":2362:2371   */\n      dup3\n        /* \"#utility.yul\":2358:2376   */\n      add\n        /* \"#utility.yul\":2350:2376   */\n      swap1\n      pop\n        /* \"#utility.yul\":2386:2457   */\n      tag_126\n        /* \"#utility.yul\":2454:2455   */\n      0x00\n        /* \"#utility.yul\":2443:2452   */\n      dup4\n        /* \"#utility.yul\":2439:2456   */\n      add\n        /* \"#utility.yul\":2430:2436   */\n      dup5\n        /* \"#utility.yul\":2386:2457   */\n      tag_102\n      jump\t// in\n    tag_126:\n        /* \"#utility.yul\":2242:2464   */\n      swap3\n      swap2\n      pop\n      pop\n      jump\t// out\n        /* \"#utility.yul\":2470:2724   */\n    tag_51:\n        /* \"#utility.yul\":2579:2583   */\n      0x00\n        /* \"#utility.yul\":2617:2619   */\n      0x20\n        /* \"#utility.yul\":2606:2615   */\n      dup3\n        /* \"#utility.yul\":2602:2620   */\n      add\n        /* \"#utility.yul\":2594:2620   */\n      swap1\n      pop\n        /* \"#utility.yul\":2630:2717   */\n      tag_128\n        /* \"#utility.yul\":2714:2715   */\n      0x00\n        /* \"#utility.yul\":2703:2712   */\n      dup4\n        /* \"#utility.yul\":2699:2716   */\n      add\n        /* \"#utility.yul\":2690:2696   */\n      dup5\n        /* \"#utility.yul\":2630:2717   */\n      tag_98\n      jump\t// in\n    tag_128:\n        /* \"#utility.yul\":2470:2724   */\n      swap3\n      swap2\n      pop\n      pop\n      jump\t// out\n        /* \"#utility.yul\":2730:2940   */\n    tag_32:\n        /* \"#utility.yul\":2817:2821   */\n      0x00\n        /* \"#utility.yul\":2855:2857   */\n      0x20\n        /* \"#utility.yul\":2844:2853   */\n      dup3\n        /* \"#utility.yul\":2840:2858   */\n      add\n        /* \"#utility.yul\":2832:2858   */\n      swap1\n      pop\n        /* \"#utility.yul\":2868:2933   */\n      tag_130\n        /* \"#utility.yul\":2930:2931   */\n      0x00\n        /* \"#utility.yul\":2919:2928   */\n      dup4\n        /* \"#utility.yul\":2915:2932   */\n      add\n        /* \"#utility.yul\":2906:2912   */\n      dup5\n        /* \"#utility.yul\":2868:2933   */\n      tag_106\n      jump\t// in\n    tag_130:\n        /* \"#utility.yul\":2730:2940   */\n      swap3\n      swap2\n      pop\n      pop\n      jump\t// out\n        /* \"#utility.yul\":2946:3365   */\n    tag_60:\n        /* \"#utility.yul\":3112:3116   */\n      0x00\n        /* \"#utility.yul\":3150:3152   */\n      0x20\n        /* \"#utility.yul\":3139:3148   */\n      dup3\n        /* \"#utility.yul\":3135:3153   */\n      add\n        /* \"#utility.yul\":3127:3153   */\n      swap1\n      pop\n        /* \"#utility.yul\":3199:3208   */\n      dup2\n        /* \"#utility.yul\":3193:3197   */\n      dup2\n        /* \"#utility.yul\":3189:3209   */\n      sub\n        /* \"#utility.yul\":3185:3186   */\n      0x00\n        /* \"#utility.yul\":3174:3183   */\n      dup4\n        /* \"#utility.yul\":3170:3187   */\n      add\n        /* \"#utility.yul\":3163:3210   */\n      mstore\n        /* \"#utility.yul\":3227:3358   */\n      tag_132\n        /* \"#utility.yul\":3353:3357   */\n      dup2\n        /* \"#utility.yul\":3227:3358   */\n      tag_110\n      jump\t// in\n    tag_132:\n        /* \"#utility.yul\":3219:3358   */\n      swap1\n      pop\n        /* \"#utility.yul\":2946:3365   */\n      swap2\n      swap1\n      pop\n      jump\t// out\n        /* \"#utility.yul\":3371:3790   */\n    tag_70:\n        /* \"#utility.yul\":3537:3541   */\n      0x00\n        /* \"#utility.yul\":3575:3577   */\n      0x20\n        /* \"#utility.yul\":3564:3573   */\n      dup3\n        /* \"#utility.yul\":3560:3578   */\n      add\n        /* \"#utility.yul\":3552:3578   */\n      swap1\n      pop\n        /* \"#utility.yul\":3624:3633   */\n      dup2\n        /* \"#utility.yul\":3618:3622   */\n      dup2\n        /* \"#utility.yul\":3614:3634   */\n      sub\n        /* \"#utility.yul\":3610:3611   */\n      0x00\n        /* \"#utility.yul\":3599:3608   */\n      dup4\n        /* \"#utility.yul\":3595:3612   */\n      add\n        /* \"#utility.yul\":3588:3635   */\n      mstore\n        /* \"#utility.yul\":3652:3783   */\n      tag_134\n        /* \"#utility.yul\":3778:3782   */\n      dup2\n        /* \"#utility.yul\":3652:3783   */\n      tag_116\n      jump\t// in\n    tag_134:\n        /* \"#utility.yul\":3644:3783   */\n      swap1\n      pop\n        /* \"#utility.yul\":3371:3790   */\n      swap2\n      swap1\n      pop\n      jump\t// out\n        /* \"#utility.yul\":3796:4018   */\n    tag_17:\n        /* \"#utility.yul\":3889:3893   */\n      0x00\n        /* \"#utility.yul\":3927:3929   */\n      0x20\n        /* \"#utility.yul\":3916:3925   */\n      dup3\n        /* \"#utility.yul\":3912:3930   */\n      add\n        /* \"#utility.yul\":3904:3930   */\n      swap1\n      pop\n        /* \"#utility.yul\":3940:4011   */\n      tag_136\n        /* \"#utility.yul\":4008:4009   */\n      0x00\n        /* \"#utility.yul\":3997:4006   */\n      dup4\n        /* \"#utility.yul\":3993:4010   */\n      add\n        /* \"#utility.yul\":3984:3990   */\n      dup5\n        /* \"#utility.yul\":3940:4011   */\n      tag_121\n      jump\t// in\n    tag_136:\n        /* \"#utility.yul\":3796:4018   */\n      swap3\n      swap2\n      pop\n      pop\n      jump\t// out\n        /* \"#utility.yul\":4105:4274   */\n    tag_113:\n        /* \"#utility.yul\":4189:4200   */\n      0x00\n        /* \"#utility.yul\":4223:4229   */\n      dup3\n        /* \"#utility.yul\":4218:4221   */\n      dup3\n        /* \"#utility.yul\":4211:4230   */\n      mstore\n        /* \"#utility.yul\":4263:4267   */\n      0x20\n        /* \"#utility.yul\":4258:4261   */\n      dup3\n        /* \"#utility.yul\":4254:4268   */\n      add\n        /* \"#utility.yul\":4239:4268   */\n      swap1\n      pop\n        /* \"#utility.yul\":4105:4274   */\n      swap3\n      swap2\n      pop\n      pop\n      jump\t// out\n        /* \"#utility.yul\":4280:4376   */\n    tag_105:\n        /* \"#utility.yul\":4317:4324   */\n      0x00\n        /* \"#utility.yul\":4346:4370   */\n      tag_141\n        /* \"#utility.yul\":4364:4369   */\n      dup3\n        /* \"#utility.yul\":4346:4370   */\n      tag_142\n      jump\t// in\n    tag_141:\n        /* \"#utility.yul\":4335:4370   */\n      swap1\n      pop\n        /* \"#utility.yul\":4280:4376   */\n      swap2\n      swap1\n      pop\n      jump\t// out\n        /* \"#utility.yul\":4382:4486   */\n    tag_101:\n        /* \"#utility.yul\":4427:4434   */\n      0x00\n        /* \"#utility.yul\":4456:4480   */\n      tag_144\n        /* \"#utility.yul\":4474:4479   */\n      dup3\n        /* \"#utility.yul\":4456:4480   */\n      tag_142\n      jump\t// in\n    tag_144:\n        /* \"#utility.yul\":4445:4480   */\n      swap1\n      pop\n        /* \"#utility.yul\":4382:4486   */\n      swap2\n      swap1\n      pop\n      jump\t// out\n        /* \"#utility.yul\":4492:4581   */\n    tag_109:\n        /* \"#utility.yul\":4526:4533   */\n      0x00\n        /* \"#utility.yul\":4569:4574   */\n      dup2\n        /* \"#utility.yul\":4566:4567   */\n      0x00\n        /* \"#utility.yul\":4555:4575   */\n      signextend\n        /* \"#utility.yul\":4544:4575   */\n      swap1\n      pop\n        /* \"#utility.yul\":4492:4581   */\n      swap2\n      swap1\n      pop\n      jump\t// out\n        /* \"#utility.yul\":4587:4713   */\n    tag_142:\n        /* \"#utility.yul\":4624:4631   */\n      0x00\n        /* \"#utility.yul\":4664:4706   */\n      0xffffffffffffffffffffffffffffffffffffffff\n        /* \"#utility.yul\":4657:4662   */\n      dup3\n        /* \"#utility.yul\":4653:4707   */\n      and\n        /* \"#utility.yul\":4642:4707   */\n      swap1\n      pop\n        /* \"#utility.yul\":4587:4713   */\n      swap2\n      swap1\n      pop\n      jump\t// out\n        /* \"#utility.yul\":4719:4796   */\n    tag_124:\n        /* \"#utility.yul\":4756:4763   */\n      0x00\n        /* \"#utility.yul\":4785:4790   */\n      dup2\n        /* \"#utility.yul\":4774:4790   */\n      swap1\n      pop\n        /* \"#utility.yul\":4719:4796   */\n      swap2\n      swap1\n      pop\n      jump\t// out\n        /* \"#utility.yul\":4925:5042   */\n    tag_92:\n        /* \"#utility.yul\":5034:5035   */\n      0x00\n        /* \"#utility.yul\":5031:5032   */\n      dup1\n        /* \"#utility.yul\":5024:5036   */\n      revert\n        /* \"#utility.yul\":5048:5226   */\n    tag_115:\n        /* \"#utility.yul\":5188:5218   */\n      0x636865636b7320666f72206f776e6572206f6620636f6e747261637400000000\n        /* \"#utility.yul\":5184:5185   */\n      0x00\n        /* \"#utility.yul\":5176:5182   */\n      dup3\n        /* \"#utility.yul\":5172:5186   */\n      add\n        /* \"#utility.yul\":5165:5219   */\n      mstore\n        /* \"#utility.yul\":5048:5226   */\n      pop\n      jump\t// out\n        /* \"#utility.yul\":5232:5467   */\n    tag_120:\n        /* \"#utility.yul\":5372:5406   */\n      0x6f6e6c792030206f72203120617320706172616d6574657220666f7220746865\n        /* \"#utility.yul\":5368:5369   */\n      0x00\n        /* \"#utility.yul\":5360:5366   */\n      dup3\n        /* \"#utility.yul\":5356:5370   */\n      add\n        /* \"#utility.yul\":5349:5407   */\n      mstore\n        /* \"#utility.yul\":5441:5459   */\n      0x207365744c65642066756e6374696f6e00000000000000000000000000000000\n        /* \"#utility.yul\":5436:5438   */\n      0x20\n        /* \"#utility.yul\":5428:5434   */\n      dup3\n        /* \"#utility.yul\":5424:5439   */\n      add\n        /* \"#utility.yul\":5417:5460   */\n      mstore\n        /* \"#utility.yul\":5232:5467   */\n      pop\n      jump\t// out\n        /* \"#utility.yul\":5473:5611   */\n    tag_84:\n        /* \"#utility.yul\":5554:5586   */\n      tag_154\n        /* \"#utility.yul\":5580:5585   */\n      dup2\n        /* \"#utility.yul\":5554:5586   */\n      tag_101\n      jump\t// in\n    tag_154:\n        /* \"#utility.yul\":5547:5552   */\n      dup2\n        /* \"#utility.yul\":5544:5587   */\n      eq\n        /* \"#utility.yul\":5534:5605   */\n      tag_155\n      jumpi\n        /* \"#utility.yul\":5601:5602   */\n      0x00\n        /* \"#utility.yul\":5598:5599   */\n      dup1\n        /* \"#utility.yul\":5591:5603   */\n      revert\n        /* \"#utility.yul\":5534:5605   */\n    tag_155:\n        /* \"#utility.yul\":5473:5611   */\n      pop\n      jump\t// out\n        /* \"#utility.yul\":5617:5733   */\n    tag_88:\n        /* \"#utility.yul\":5687:5708   */\n      tag_157\n        /* \"#utility.yul\":5702:5707   */\n      dup2\n        /* \"#utility.yul\":5687:5708   */\n      tag_109\n      jump\t// in\n    tag_157:\n        /* \"#utility.yul\":5680:5685   */\n      dup2\n        /* \"#utility.yul\":5677:5709   */\n      eq\n        /* \"#utility.yul\":5667:5727   */\n      tag_158\n      jumpi\n        /* \"#utility.yul\":5723:5724   */\n      0x00\n        /* \"#utility.yul\":5720:5721   */\n      dup1\n        /* \"#utility.yul\":5713:5725   */\n      revert\n        /* \"#utility.yul\":5667:5727   */\n    tag_158:\n        /* \"#utility.yul\":5617:5733   */\n      pop\n      jump\t// out\n\n    auxdata: 0xa26469706673582212202cf9e8c9c097384406fd52ac50455fa62b060b1608f6dfbe8f568df0699322a464736f6c63430008070033\n}\n",
				"bytecode": {
					"linkReferences": {},
					"object": "608060405234801561001057600080fd5b50336000806101000a81548173ffffffffffffffffffffffffffffffffffffffff021916908373ffffffffffffffffffffffffffffffffffffffff16021790555030600160006101000a81548173ffffffffffffffffffffffffffffffffffffffff021916908373ffffffffffffffffffffffffffffffffffffffff1602179055506108ce806100a16000396000f3fe6080604052600436106100915760003560e01c80638863dd1a116100595780638863dd1a14610136578063893d20e81461015f578063a54809591461018a578063e717ea61146101b5578063f6b4dfb4146101e057610091565b806308b6ff5614610096578063224ee04f146100c157806341c0e1b5146100d857806361df9af9146100ef5780637291d59b1461010b575b600080fd5b3480156100a257600080fd5b506100ab61020b565b6040516100b89190610766565b60405180910390f35b3480156100cd57600080fd5b506100d661024b565b005b3480156100e457600080fd5b506100ed6102db565b005b61010960048036038101906101049190610626565b6103a2565b005b34801561011757600080fd5b5061012061047e565b60405161012d919061070b565b60405180910390f35b34801561014257600080fd5b5061015d600480360381019061015891906105f9565b610491565b005b34801561016b57600080fd5b50610174610562565b60405161018191906106d5565b60405180910390f35b34801561019657600080fd5b5061019f61058b565b6040516101ac919061070b565b60405180910390f35b3480156101c157600080fd5b506101ca6105a1565b6040516101d791906106f0565b60405180910390f35b3480156101ec57600080fd5b506101f56105a9565b60405161020291906106d5565b60405180910390f35b60008060009054906101000a900473ffffffffffffffffffffffffffffffffffffffff1673ffffffffffffffffffffffffffffffffffffffff1631905090565b60008054906101000a900473ffffffffffffffffffffffffffffffffffffffff1673ffffffffffffffffffffffffffffffffffffffff163373ffffffffffffffffffffffffffffffffffffffff16146102d9576040517f08c379a00000000000000000000000000000000000000000000000000000000081526004016102d090610726565b60405180910390fd5b565b60008054906101000a900473ffffffffffffffffffffffffffffffffffffffff1673ffffffffffffffffffffffffffffffffffffffff163373ffffffffffffffffffffffffffffffffffffffff1614610369576040517f08c379a000000000000000000000000000000000000000000000000000000000815260040161036090610726565b60405180910390fd5b60008054906101000a900473ffffffffffffffffffffffffffffffffffffffff1673ffffffffffffffffffffffffffffffffffffffff16ff5b60018160000b14806103b7575060008160000b145b6103f6576040517f08c379a00000000000000000000000000000000000000000000000000000000081526004016103ed90610746565b60405180910390fd5b80600060146101000a81548160ff021916908360000b60ff16021790555060008054906101000a900473ffffffffffffffffffffffffffffffffffffffff1673ffffffffffffffffffffffffffffffffffffffff166108fc349081150290604051600060405180830381858888f1935050505015801561047a573d6000803e3d6000fd5b5050565b600060149054906101000a900460000b81565b60008054906101000a900473ffffffffffffffffffffffffffffffffffffffff1673ffffffffffffffffffffffffffffffffffffffff163373ffffffffffffffffffffffffffffffffffffffff161461051f576040517f08c379a000000000000000000000000000000000000000000000000000000000815260040161051690610726565b60405180910390fd5b806000806101000a81548173ffffffffffffffffffffffffffffffffffffffff021916908373ffffffffffffffffffffffffffffffffffffffff16021790555050565b60008060009054906101000a900473ffffffffffffffffffffffffffffffffffffffff16905090565b60008060149054906101000a900460000b905090565b600030905090565b600160009054906101000a900473ffffffffffffffffffffffffffffffffffffffff1681565b6000813590506105de8161086a565b92915050565b6000813590506105f381610881565b92915050565b60006020828403121561060f5761060e6107ed565b5b600061061d848285016105cf565b91505092915050565b60006020828403121561063c5761063b6107ed565b5b600061064a848285016105e4565b91505092915050565b61065c816107a4565b82525050565b61066b81610792565b82525050565b61067a816107b6565b82525050565b600061068d601c83610781565b9150610698826107f2565b602082019050919050565b60006106b0603083610781565b91506106bb8261081b565b604082019050919050565b6106cf816107e3565b82525050565b60006020820190506106ea6000830184610662565b92915050565b60006020820190506107056000830184610653565b92915050565b60006020820190506107206000830184610671565b92915050565b6000602082019050818103600083015261073f81610680565b9050919050565b6000602082019050818103600083015261075f816106a3565b9050919050565b600060208201905061077b60008301846106c6565b92915050565b600082825260208201905092915050565b600061079d826107c3565b9050919050565b60006107af826107c3565b9050919050565b60008160000b9050919050565b600073ffffffffffffffffffffffffffffffffffffffff82169050919050565b6000819050919050565b600080fd5b7f636865636b7320666f72206f776e6572206f6620636f6e747261637400000000600082015250565b7f6f6e6c792030206f72203120617320706172616d6574657220666f722074686560008201527f207365744c65642066756e6374696f6e00000000000000000000000000000000602082015250565b610873816107a4565b811461087e57600080fd5b50565b61088a816107b6565b811461089557600080fd5b5056fea26469706673582212202cf9e8c9c097384406fd52ac50455fa62b060b1608f6dfbe8f568df0699322a464736f6c63430008070033",
					"opcodes": "PUSH1 0x80 PUSH1 0x40 MSTORE CALLVALUE DUP1 ISZERO PUSH2 0x10 JUMPI PUSH1 0x0 DUP1 REVERT JUMPDEST POP CALLER PUSH1 0x0 DUP1 PUSH2 0x100 EXP DUP2 SLOAD DUP2 PUSH20 0xFFFFFFFFFFFFFFFFFFFFFFFFFFFFFFFFFFFFFFFF MUL NOT AND SWAP1 DUP4 PUSH20 0xFFFFFFFFFFFFFFFFFFFFFFFFFFFFFFFFFFFFFFFF AND MUL OR SWAP1 SSTORE POP ADDRESS PUSH1 0x1 PUSH1 0x0 PUSH2 0x100 EXP DUP2 SLOAD DUP2 PUSH20 0xFFFFFFFFFFFFFFFFFFFFFFFFFFFFFFFFFFFFFFFF MUL NOT AND SWAP1 DUP4 PUSH20 0xFFFFFFFFFFFFFFFFFFFFFFFFFFFFFFFFFFFFFFFF AND MUL OR SWAP1 SSTORE POP PUSH2 0x8CE DUP1 PUSH2 0xA1 PUSH1 0x0 CODECOPY PUSH1 0x0 RETURN INVALID PUSH1 0x80 PUSH1 0x40 MSTORE PUSH1 0x4 CALLDATASIZE LT PUSH2 0x91 JUMPI PUSH1 0x0 CALLDATALOAD PUSH1 0xE0 SHR DUP1 PUSH4 0x8863DD1A GT PUSH2 0x59 JUMPI DUP1 PUSH4 0x8863DD1A EQ PUSH2 0x136 JUMPI DUP1 PUSH4 0x893D20E8 EQ PUSH2 0x15F JUMPI DUP1 PUSH4 0xA5480959 EQ PUSH2 0x18A JUMPI DUP1 PUSH4 0xE717EA61 EQ PUSH2 0x1B5 JUMPI DUP1 PUSH4 0xF6B4DFB4 EQ PUSH2 0x1E0 JUMPI PUSH2 0x91 JUMP JUMPDEST DUP1 PUSH4 0x8B6FF56 EQ PUSH2 0x96 JUMPI DUP1 PUSH4 0x224EE04F EQ PUSH2 0xC1 JUMPI DUP1 PUSH4 0x41C0E1B5 EQ PUSH2 0xD8 JUMPI DUP1 PUSH4 0x61DF9AF9 EQ PUSH2 0xEF JUMPI DUP1 PUSH4 0x7291D59B EQ PUSH2 0x10B JUMPI JUMPDEST PUSH1 0x0 DUP1 REVERT JUMPDEST CALLVALUE DUP1 ISZERO PUSH2 0xA2 JUMPI PUSH1 0x0 DUP1 REVERT JUMPDEST POP PUSH2 0xAB PUSH2 0x20B JUMP JUMPDEST PUSH1 0x40 MLOAD PUSH2 0xB8 SWAP2 SWAP1 PUSH2 0x766 JUMP JUMPDEST PUSH1 0x40 MLOAD DUP1 SWAP2 SUB SWAP1 RETURN JUMPDEST CALLVALUE DUP1 ISZERO PUSH2 0xCD JUMPI PUSH1 0x0 DUP1 REVERT JUMPDEST POP PUSH2 0xD6 PUSH2 0x24B JUMP JUMPDEST STOP JUMPDEST CALLVALUE DUP1 ISZERO PUSH2 0xE4 JUMPI PUSH1 0x0 DUP1 REVERT JUMPDEST POP PUSH2 0xED PUSH2 0x2DB JUMP JUMPDEST STOP JUMPDEST PUSH2 0x109 PUSH1 0x4 DUP1 CALLDATASIZE SUB DUP2 ADD SWAP1 PUSH2 0x104 SWAP2 SWAP1 PUSH2 0x626 JUMP JUMPDEST PUSH2 0x3A2 JUMP JUMPDEST STOP JUMPDEST CALLVALUE DUP1 ISZERO PUSH2 0x117 JUMPI PUSH1 0x0 DUP1 REVERT JUMPDEST POP PUSH2 0x120 PUSH2 0x47E JUMP JUMPDEST PUSH1 0x40 MLOAD PUSH2 0x12D SWAP2 SWAP1 PUSH2 0x70B JUMP JUMPDEST PUSH1 0x40 MLOAD DUP1 SWAP2 SUB SWAP1 RETURN JUMPDEST CALLVALUE DUP1 ISZERO PUSH2 0x142 JUMPI PUSH1 0x0 DUP1 REVERT JUMPDEST POP PUSH2 0x15D PUSH1 0x4 DUP1 CALLDATASIZE SUB DUP2 ADD SWAP1 PUSH2 0x158 SWAP2 SWAP1 PUSH2 0x5F9 JUMP JUMPDEST PUSH2 0x491 JUMP JUMPDEST STOP JUMPDEST CALLVALUE DUP1 ISZERO PUSH2 0x16B JUMPI PUSH1 0x0 DUP1 REVERT JUMPDEST POP PUSH2 0x174 PUSH2 0x562 JUMP JUMPDEST PUSH1 0x40 MLOAD PUSH2 0x181 SWAP2 SWAP1 PUSH2 0x6D5 JUMP JUMPDEST PUSH1 0x40 MLOAD DUP1 SWAP2 SUB SWAP1 RETURN JUMPDEST CALLVALUE DUP1 ISZERO PUSH2 0x196 JUMPI PUSH1 0x0 DUP1 REVERT JUMPDEST POP PUSH2 0x19F PUSH2 0x58B JUMP JUMPDEST PUSH1 0x40 MLOAD PUSH2 0x1AC SWAP2 SWAP1 PUSH2 0x70B JUMP JUMPDEST PUSH1 0x40 MLOAD DUP1 SWAP2 SUB SWAP1 RETURN JUMPDEST CALLVALUE DUP1 ISZERO PUSH2 0x1C1 JUMPI PUSH1 0x0 DUP1 REVERT JUMPDEST POP PUSH2 0x1CA PUSH2 0x5A1 JUMP JUMPDEST PUSH1 0x40 MLOAD PUSH2 0x1D7 SWAP2 SWAP1 PUSH2 0x6F0 JUMP JUMPDEST PUSH1 0x40 MLOAD DUP1 SWAP2 SUB SWAP1 RETURN JUMPDEST CALLVALUE DUP1 ISZERO PUSH2 0x1EC JUMPI PUSH1 0x0 DUP1 REVERT JUMPDEST POP PUSH2 0x1F5 PUSH2 0x5A9 JUMP JUMPDEST PUSH1 0x40 MLOAD PUSH2 0x202 SWAP2 SWAP1 PUSH2 0x6D5 JUMP JUMPDEST PUSH1 0x40 MLOAD DUP1 SWAP2 SUB SWAP1 RETURN JUMPDEST PUSH1 0x0 DUP1 PUSH1 0x0 SWAP1 SLOAD SWAP1 PUSH2 0x100 EXP SWAP1 DIV PUSH20 0xFFFFFFFFFFFFFFFFFFFFFFFFFFFFFFFFFFFFFFFF AND PUSH20 0xFFFFFFFFFFFFFFFFFFFFFFFFFFFFFFFFFFFFFFFF AND BALANCE SWAP1 POP SWAP1 JUMP JUMPDEST PUSH1 0x0 DUP1 SLOAD SWAP1 PUSH2 0x100 EXP SWAP1 DIV PUSH20 0xFFFFFFFFFFFFFFFFFFFFFFFFFFFFFFFFFFFFFFFF AND PUSH20 0xFFFFFFFFFFFFFFFFFFFFFFFFFFFFFFFFFFFFFFFF AND CALLER PUSH20 0xFFFFFFFFFFFFFFFFFFFFFFFFFFFFFFFFFFFFFFFF AND EQ PUSH2 0x2D9 JUMPI PUSH1 0x40 MLOAD PUSH32 0x8C379A000000000000000000000000000000000000000000000000000000000 DUP2 MSTORE PUSH1 0x4 ADD PUSH2 0x2D0 SWAP1 PUSH2 0x726 JUMP JUMPDEST PUSH1 0x40 MLOAD DUP1 SWAP2 SUB SWAP1 REVERT JUMPDEST JUMP JUMPDEST PUSH1 0x0 DUP1 SLOAD SWAP1 PUSH2 0x100 EXP SWAP1 DIV PUSH20 0xFFFFFFFFFFFFFFFFFFFFFFFFFFFFFFFFFFFFFFFF AND PUSH20 0xFFFFFFFFFFFFFFFFFFFFFFFFFFFFFFFFFFFFFFFF AND CALLER PUSH20 0xFFFFFFFFFFFFFFFFFFFFFFFFFFFFFFFFFFFFFFFF AND EQ PUSH2 0x369 JUMPI PUSH1 0x40 MLOAD PUSH32 0x8C379A000000000000000000000000000000000000000000000000000000000 DUP2 MSTORE PUSH1 0x4 ADD PUSH2 0x360 SWAP1 PUSH2 0x726 JUMP JUMPDEST PUSH1 0x40 MLOAD DUP1 SWAP2 SUB SWAP1 REVERT JUMPDEST PUSH1 0x0 DUP1 SLOAD SWAP1 PUSH2 0x100 EXP SWAP1 DIV PUSH20 0xFFFFFFFFFFFFFFFFFFFFFFFFFFFFFFFFFFFFFFFF AND PUSH20 0xFFFFFFFFFFFFFFFFFFFFFFFFFFFFFFFFFFFFFFFF AND SELFDESTRUCT JUMPDEST PUSH1 0x1 DUP2 PUSH1 0x0 SIGNEXTEND EQ DUP1 PUSH2 0x3B7 JUMPI POP PUSH1 0x0 DUP2 PUSH1 0x0 SIGNEXTEND EQ JUMPDEST PUSH2 0x3F6 JUMPI PUSH1 0x40 MLOAD PUSH32 0x8C379A000000000000000000000000000000000000000000000000000000000 DUP2 MSTORE PUSH1 0x4 ADD PUSH2 0x3ED SWAP1 PUSH2 0x746 JUMP JUMPDEST PUSH1 0x40 MLOAD DUP1 SWAP2 SUB SWAP1 REVERT JUMPDEST DUP1 PUSH1 0x0 PUSH1 0x14 PUSH2 0x100 EXP DUP2 SLOAD DUP2 PUSH1 0xFF MUL NOT AND SWAP1 DUP4 PUSH1 0x0 SIGNEXTEND PUSH1 0xFF AND MUL OR SWAP1 SSTORE POP PUSH1 0x0 DUP1 SLOAD SWAP1 PUSH2 0x100 EXP SWAP1 DIV PUSH20 0xFFFFFFFFFFFFFFFFFFFFFFFFFFFFFFFFFFFFFFFF AND PUSH20 0xFFFFFFFFFFFFFFFFFFFFFFFFFFFFFFFFFFFFFFFF AND PUSH2 0x8FC CALLVALUE SWAP1 DUP2 ISZERO MUL SWAP1 PUSH1 0x40 MLOAD PUSH1 0x0 PUSH1 0x40 MLOAD DUP1 DUP4 SUB DUP2 DUP6 DUP9 DUP9 CALL SWAP4 POP POP POP POP ISZERO DUP1 ISZERO PUSH2 0x47A JUMPI RETURNDATASIZE PUSH1 0x0 DUP1 RETURNDATACOPY RETURNDATASIZE PUSH1 0x0 REVERT JUMPDEST POP POP JUMP JUMPDEST PUSH1 0x0 PUSH1 0x14 SWAP1 SLOAD SWAP1 PUSH2 0x100 EXP SWAP1 DIV PUSH1 0x0 SIGNEXTEND DUP2 JUMP JUMPDEST PUSH1 0x0 DUP1 SLOAD SWAP1 PUSH2 0x100 EXP SWAP1 DIV PUSH20 0xFFFFFFFFFFFFFFFFFFFFFFFFFFFFFFFFFFFFFFFF AND PUSH20 0xFFFFFFFFFFFFFFFFFFFFFFFFFFFFFFFFFFFFFFFF AND CALLER PUSH20 0xFFFFFFFFFFFFFFFFFFFFFFFFFFFFFFFFFFFFFFFF AND EQ PUSH2 0x51F JUMPI PUSH1 0x40 MLOAD PUSH32 0x8C379A000000000000000000000000000000000000000000000000000000000 DUP2 MSTORE PUSH1 0x4 ADD PUSH2 0x516 SWAP1 PUSH2 0x726 JUMP JUMPDEST PUSH1 0x40 MLOAD DUP1 SWAP2 SUB SWAP1 REVERT JUMPDEST DUP1 PUSH1 0x0 DUP1 PUSH2 0x100 EXP DUP2 SLOAD DUP2 PUSH20 0xFFFFFFFFFFFFFFFFFFFFFFFFFFFFFFFFFFFFFFFF MUL NOT AND SWAP1 DUP4 PUSH20 0xFFFFFFFFFFFFFFFFFFFFFFFFFFFFFFFFFFFFFFFF AND MUL OR SWAP1 SSTORE POP POP JUMP JUMPDEST PUSH1 0x0 DUP1 PUSH1 0x0 SWAP1 SLOAD SWAP1 PUSH2 0x100 EXP SWAP1 DIV PUSH20 0xFFFFFFFFFFFFFFFFFFFFFFFFFFFFFFFFFFFFFFFF AND SWAP1 POP SWAP1 JUMP JUMPDEST PUSH1 0x0 DUP1 PUSH1 0x14 SWAP1 SLOAD SWAP1 PUSH2 0x100 EXP SWAP1 DIV PUSH1 0x0 SIGNEXTEND SWAP1 POP SWAP1 JUMP JUMPDEST PUSH1 0x0 ADDRESS SWAP1 POP SWAP1 JUMP JUMPDEST PUSH1 0x1 PUSH1 0x0 SWAP1 SLOAD SWAP1 PUSH2 0x100 EXP SWAP1 DIV PUSH20 0xFFFFFFFFFFFFFFFFFFFFFFFFFFFFFFFFFFFFFFFF AND DUP2 JUMP JUMPDEST PUSH1 0x0 DUP2 CALLDATALOAD SWAP1 POP PUSH2 0x5DE DUP2 PUSH2 0x86A JUMP JUMPDEST SWAP3 SWAP2 POP POP JUMP JUMPDEST PUSH1 0x0 DUP2 CALLDATALOAD SWAP1 POP PUSH2 0x5F3 DUP2 PUSH2 0x881 JUMP JUMPDEST SWAP3 SWAP2 POP POP JUMP JUMPDEST PUSH1 0x0 PUSH1 0x20 DUP3 DUP5 SUB SLT ISZERO PUSH2 0x60F JUMPI PUSH2 0x60E PUSH2 0x7ED JUMP JUMPDEST JUMPDEST PUSH1 0x0 PUSH2 0x61D DUP5 DUP3 DUP6 ADD PUSH2 0x5CF JUMP JUMPDEST SWAP2 POP POP SWAP3 SWAP2 POP POP JUMP JUMPDEST PUSH1 0x0 PUSH1 0x20 DUP3 DUP5 SUB SLT ISZERO PUSH2 0x63C JUMPI PUSH2 0x63B PUSH2 0x7ED JUMP JUMPDEST JUMPDEST PUSH1 0x0 PUSH2 0x64A DUP5 DUP3 DUP6 ADD PUSH2 0x5E4 JUMP JUMPDEST SWAP2 POP POP SWAP3 SWAP2 POP POP JUMP JUMPDEST PUSH2 0x65C DUP2 PUSH2 0x7A4 JUMP JUMPDEST DUP3 MSTORE POP POP JUMP JUMPDEST PUSH2 0x66B DUP2 PUSH2 0x792 JUMP JUMPDEST DUP3 MSTORE POP POP JUMP JUMPDEST PUSH2 0x67A DUP2 PUSH2 0x7B6 JUMP JUMPDEST DUP3 MSTORE POP POP JUMP JUMPDEST PUSH1 0x0 PUSH2 0x68D PUSH1 0x1C DUP4 PUSH2 0x781 JUMP JUMPDEST SWAP2 POP PUSH2 0x698 DUP3 PUSH2 0x7F2 JUMP JUMPDEST PUSH1 0x20 DUP3 ADD SWAP1 POP SWAP2 SWAP1 POP JUMP JUMPDEST PUSH1 0x0 PUSH2 0x6B0 PUSH1 0x30 DUP4 PUSH2 0x781 JUMP JUMPDEST SWAP2 POP PUSH2 0x6BB DUP3 PUSH2 0x81B JUMP JUMPDEST PUSH1 0x40 DUP3 ADD SWAP1 POP SWAP2 SWAP1 POP JUMP JUMPDEST PUSH2 0x6CF DUP2 PUSH2 0x7E3 JUMP JUMPDEST DUP3 MSTORE POP POP JUMP JUMPDEST PUSH1 0x0 PUSH1 0x20 DUP3 ADD SWAP1 POP PUSH2 0x6EA PUSH1 0x0 DUP4 ADD DUP5 PUSH2 0x662 JUMP JUMPDEST SWAP3 SWAP2 POP POP JUMP JUMPDEST PUSH1 0x0 PUSH1 0x20 DUP3 ADD SWAP1 POP PUSH2 0x705 PUSH1 0x0 DUP4 ADD DUP5 PUSH2 0x653 JUMP JUMPDEST SWAP3 SWAP2 POP POP JUMP JUMPDEST PUSH1 0x0 PUSH1 0x20 DUP3 ADD SWAP1 POP PUSH2 0x720 PUSH1 0x0 DUP4 ADD DUP5 PUSH2 0x671 JUMP JUMPDEST SWAP3 SWAP2 POP POP JUMP JUMPDEST PUSH1 0x0 PUSH1 0x20 DUP3 ADD SWAP1 POP DUP2 DUP2 SUB PUSH1 0x0 DUP4 ADD MSTORE PUSH2 0x73F DUP2 PUSH2 0x680 JUMP JUMPDEST SWAP1 POP SWAP2 SWAP1 POP JUMP JUMPDEST PUSH1 0x0 PUSH1 0x20 DUP3 ADD SWAP1 POP DUP2 DUP2 SUB PUSH1 0x0 DUP4 ADD MSTORE PUSH2 0x75F DUP2 PUSH2 0x6A3 JUMP JUMPDEST SWAP1 POP SWAP2 SWAP1 POP JUMP JUMPDEST PUSH1 0x0 PUSH1 0x20 DUP3 ADD SWAP1 POP PUSH2 0x77B PUSH1 0x0 DUP4 ADD DUP5 PUSH2 0x6C6 JUMP JUMPDEST SWAP3 SWAP2 POP POP JUMP JUMPDEST PUSH1 0x0 DUP3 DUP3 MSTORE PUSH1 0x20 DUP3 ADD SWAP1 POP SWAP3 SWAP2 POP POP JUMP JUMPDEST PUSH1 0x0 PUSH2 0x79D DUP3 PUSH2 0x7C3 JUMP JUMPDEST SWAP1 POP SWAP2 SWAP1 POP JUMP JUMPDEST PUSH1 0x0 PUSH2 0x7AF DUP3 PUSH2 0x7C3 JUMP JUMPDEST SWAP1 POP SWAP2 SWAP1 POP JUMP JUMPDEST PUSH1 0x0 DUP2 PUSH1 0x0 SIGNEXTEND SWAP1 POP SWAP2 SWAP1 POP JUMP JUMPDEST PUSH1 0x0 PUSH20 0xFFFFFFFFFFFFFFFFFFFFFFFFFFFFFFFFFFFFFFFF DUP3 AND SWAP1 POP SWAP2 SWAP1 POP JUMP JUMPDEST PUSH1 0x0 DUP2 SWAP1 POP SWAP2 SWAP1 POP JUMP JUMPDEST PUSH1 0x0 DUP1 REVERT JUMPDEST PUSH32 0x636865636B7320666F72206F776E6572206F6620636F6E747261637400000000 PUSH1 0x0 DUP3 ADD MSTORE POP JUMP JUMPDEST PUSH32 0x6F6E6C792030206F72203120617320706172616D6574657220666F7220746865 PUSH1 0x0 DUP3 ADD MSTORE PUSH32 0x207365744C65642066756E6374696F6E00000000000000000000000000000000 PUSH1 0x20 DUP3 ADD MSTORE POP JUMP JUMPDEST PUSH2 0x873 DUP2 PUSH2 0x7A4 JUMP JUMPDEST DUP2 EQ PUSH2 0x87E JUMPI PUSH1 0x0 DUP1 REVERT JUMPDEST POP JUMP JUMPDEST PUSH2 0x88A DUP2 PUSH2 0x7B6 JUMP JUMPDEST DUP2 EQ PUSH2 0x895 JUMPI PUSH1 0x0 DUP1 REVERT JUMPDEST POP JUMP INVALID LOG2 PUSH5 0x6970667358 0x22 SLT KECCAK256 0x2C 0xF9 0xE8 0xC9 0xC0 SWAP8 CODESIZE DIFFICULTY MOD REVERT MSTORE 0xAC POP GASLIMIT 0x5F 0xA6 0x2B MOD SIGNEXTEND AND ADDMOD 0xF6 0xDF 0xBE DUP16 JUMP DUP14 CREATE PUSH10 0x9322A464736F6C634300 ADDMOD SMOD STOP CALLER "
				},
				"gasEstimates": {
					"creation": {
						"codeDepositCost": "450800",
						"executionCost": "49018",
						"totalCost": "499818"
					},
					"external": {
						"contractAddress()": "2602",
						"getBalanceOwner()": "5080",
						"getCurrentAddress()": "451",
						"getOwner()": "2544",
						"kill()": "32089",
						"ledStatus()": "2614",
						"readLed()": "2577",
						"retrieveEther()": "2623",
						"setLed(int8)": "infinite",
						"transferOwnerShip(address)": "26889"
					}
				},
				"methodIdentifiers": {
					"contractAddress()": "f6b4dfb4",
					"getBalanceOwner()": "08b6ff56",
					"getCurrentAddress()": "e717ea61",
					"getOwner()": "893d20e8",
					"kill()": "41c0e1b5",
					"ledStatus()": "7291d59b",
					"readLed()": "a5480959",
					"retrieveEther()": "224ee04f",
					"setLed(int8)": "61df9af9",
					"transferOwnerShip(address)": "8863dd1a"
				}
			},
			"storageLayout": {
				"storage": [
					{
						"astId": 31,
						"contract": "contracts/led_contract.sol:led_contract",
						"label": "owner",
						"offset": 0,
						"slot": "0",
						"type": "t_address_payable"
					},
					{
						"astId": 33,
						"contract": "contracts/led_contract.sol:led_contract",
						"label": "ledStatus",
						"offset": 20,
						"slot": "0",
						"type": "t_int8"
					},
					{
						"astId": 35,
						"contract": "contracts/led_contract.sol:led_contract",
						"label": "contractAddress",
						"offset": 0,
						"slot": "1",
						"type": "t_address"
					}
				],
				"types": {
					"t_address": {
						"encoding": "inplace",
						"label": "address",
						"numberOfBytes": "20"
					},
					"t_address_payable": {
						"encoding": "inplace",
						"label": "address payable",
						"numberOfBytes": "20"
					},
					"t_int8": {
						"encoding": "inplace",
						"label": "int8",
						"numberOfBytes": "1"
					}
				}
			},
			"userdoc": {
				"kind": "user",
				"methods": {},
				"version": 1
			}
		}
	}
}