{
	"data": {
		"bytecode": {
			"linkReferences": {},
			"object": "608060405234801561001057600080fd5b5060d58061001f6000396000f3fe6080604052348015600f57600080fd5b506004361060285760003560e01c8063f1f1f30114602d575b600080fd5b60336047565b604051603e91906086565b60405180910390f35b60007fffffffffffffffffffffffffffffffffffffffffffffffffffffffffffffffff905090565b6000819050919050565b608081606f565b82525050565b6000602082019050609960008301846079565b9291505056fea2646970667358221220e6aa655cb9889f3eecaad7efdf540b54173dcc2e69a3f4c45a5d1c0d98a0dea864736f6c63430008110033",
			"opcodes": "PUSH1 0x80 PUSH1 0x40 MSTORE CALLVALUE DUP1 ISZERO PUSH2 0x10 JUMPI PUSH1 0x0 DUP1 REVERT JUMPDEST POP PUSH1 0xD5 DUP1 PUSH2 0x1F PUSH1 0x0 CODECOPY PUSH1 0x0 RETURN INVALID PUSH1 0x80 PUSH1 0x40 MSTORE CALLVALUE DUP1 ISZERO PUSH1 0xF JUMPI PUSH1 0x0 DUP1 REVERT JUMPDEST POP PUSH1 0x4 CALLDATASIZE LT PUSH1 0x28 JUMPI PUSH1 0x0 CALLDATALOAD PUSH1 0xE0 SHR DUP1 PUSH4 0xF1F1F301 EQ PUSH1 0x2D JUMPI JUMPDEST PUSH1 0x0 DUP1 REVERT JUMPDEST PUSH1 0x33 PUSH1 0x47 JUMP JUMPDEST PUSH1 0x40 MLOAD PUSH1 0x3E SWAP2 SWAP1 PUSH1 0x86 JUMP JUMPDEST PUSH1 0x40 MLOAD DUP1 SWAP2 SUB SWAP1 RETURN JUMPDEST PUSH1 0x0 PUSH32 0xFFFFFFFFFFFFFFFFFFFFFFFFFFFFFFFFFFFFFFFFFFFFFFFFFFFFFFFFFFFFFFFF SWAP1 POP SWAP1 JUMP JUMPDEST PUSH1 0x0 DUP2 SWAP1 POP SWAP2 SWAP1 POP JUMP JUMPDEST PUSH1 0x80 DUP2 PUSH1 0x6F JUMP JUMPDEST DUP3 MSTORE POP POP JUMP JUMPDEST PUSH1 0x0 PUSH1 0x20 DUP3 ADD SWAP1 POP PUSH1 0x99 PUSH1 0x0 DUP4 ADD DUP5 PUSH1 0x79 JUMP JUMPDEST SWAP3 SWAP2 POP POP JUMP INVALID LOG2 PUSH5 0x6970667358 0x22 SLT KECCAK256 0xE6 0xAA PUSH6 0x5CB9889F3EEC 0xAA 0xD7 0xEF 0xDF SLOAD SIGNEXTEND SLOAD OR RETURNDATASIZE 0xCC 0x2E PUSH10 0xA3F4C45A5D1C0D98A0DE 0xA8 PUSH5 0x736F6C6343 STOP ADDMOD GT STOP CALLER "
		},
		"gasEstimates": {
			"creation": {
				"codeDepositCost": "42600",
				"executionCost": "93",
				"totalCost": "42693"
			},
			"external": {
				"tesfun()": "315"
			}
		},
		"methodIdentifiers": {
			"tesfun()": "f1f1f301"
		}
	},
	"abi": [
		{
			"inputs": [],
			"name": "tesfun",
			"outputs": [
				{
					"internalType": "uint256",
					"name": "",
					"type": "uint256"
				}
			],
			"stateMutability": "nonpayable",
			"type": "function"
		}
	]
}